:020000040800F2
:100000000000012005430008454000084740000863
:10001000494000084B4000084D4000080000000027
:10002000000000000000000000000000A122000805
:100030004F40000800000000312300085140000834
:100040004943000849430008494300084943000860
:100050004943000849430008494300084943000850
:100060004943000849430008494300084943000840
:10007000494300084943000861400008494300081B
:1000800049430008494300086D40000849430008FF
:100090004943000849430008494300084943000810
:1000A0004943000849430008494300084943000800
:1000B00049430008494300084943000849430008F0
:1000C00049430008494300084943000849430008E0
:1000D00049430008794000084943000849430008A3
:1000E0004943000849430008494300080000000054
:1000F0000000000000000000000000000000000000
:1001000000000000000000004943000849430008C7
:10011000494300084943000849430008494300088F
:10012000494300084943000849430008494300087F
:100130004943000800000000000000004943000897
:10014000494300084943000849430008494300085F
:10015000000000000000000000000000000000009F
:10016000000000000000000000000000000000008F
:10017000000000000000000000000000000000007F
:10018000000000000000000000000000000000006F
:10019000000000000000000000000000000000005F
:1001A000000000000000000000000000000000004F
:1001B000000000000000000000000000000000003F
:1001C000000000000000000000000000000000002F
:1001D000000000000000000000000000000000001F
:0401E0005FF8E0F1F3
:1001F00010B5054C237833B9044B13B10448AFF361
:1002000000800123237010BDE001002000000000E9
:100210009C55000808B5034B1BB103490348AFF3D5
:10022000008008BD00000000E40100209C5500088B
:10023000034613F8012B002AFBD1181A0138704726
:10024000D0400B1CD1409C46203AD3401843524228
:10025000634693401843704753B94AB9002908BF11
:1002600000281CBF4FF0FF314FF0FF3000F07AB98B
:10027000ADF1080C6DE904CE00F006F8DDF804E0FD
:10028000DDE9022304B070472DE9F0478C460E46A5
:100290000446089D002B50D18A4217466CD9B2FA09
:1002A00082FEBEF1000F0BD0CEF1200C01FA0EF64B
:1002B00020FA0CFC02FA0EF74CEA060C00FA0EF4D7
:1002C0003A0CBCFBF2F9BBB202FB19CC09FB03FAF6
:1002D0004FEA144848EA0C46B2450AD9F61909F122
:1002E000FF3180F02581B24540F22281A9F1020957
:1002F0003E44A6EB0A06B6FBF2F002FB106600FBDA
:1003000003F3A4B244EA0644A34209D9E41900F174
:10031000FF3280F00B81A34240F2088102383C4456
:100320000021E41A40EA0940002D62D0002324FA9B
:100330000EF42C606B60BDE8F0878B4207D9002D6E
:1003400055D0002185E841000846BDE8F087B3FAA2
:1003500083F1002940F08F80B34202D3824200F241
:10036000FC80841A66EB03060120B446002D40D0C1
:1003700085E81010BDE8F08712B90127B7FBF2F746
:10038000B7FA87FEBEF1000F35D10121F61B4FEA07
:10039000174C1FFA87F8B6FBFCF20CFB126608FB41
:1003A00002F0230C43EA0646B04207D9F61902F1DF
:1003B000FF3302D2B04200F2D2801A46361AB6FBA0
:1003C000FCF00CFB106608FB00F8A3B243EA0644FD
:1003D000A04507D9E41900F1FF3302D2A04500F28D
:1003E000B9801846A4EB080440EA02409CE729467D
:1003F0002846BDE8F08707FA0EF7CEF1200326FA6B
:1004000003F24FEA174CB2FBFCF11FFA87F80CFB22
:10041000112206FA0EF620FA03F301FB08F9334322
:100420001E0C46EA0246B14500FA0EF409D9F61947
:1004300001F1FF3280F08C80B14540F289800239B1
:100440003E44A6EB0906B6FBFCF00CFB106200FB79
:1004500008F99EB246EA0246B14507D9F61900F1FD
:10046000FF3371D2B1456FD902383E44A6EB09067D
:1004700040EA01418FE7C1F1200722FA07F88B40DB
:1004800048EA030326FA07F44FEA134EB4FBFEF9D9
:100490001FFA83FC0EFB19448E4020FA07F809FB73
:1004A0000CFA48EA06084FEA184646EA0444A24510
:1004B00002FA01F200FA01F608D9E41809F1FF3056
:1004C00044D2A24542D9A9F102091C44A4EB0A0472
:1004D000B4FBFEF00EFB104400FB0CFC1FFA88F886
:1004E00048EA0444A44507D9E41800F1FF3E29D2A4
:1004F000A44527D902381C4440EA0940A0FB0289E0
:10050000A4EB0C0CCC45C246CE4615D312D055B147
:10051000B6EB0A036CEB0E0606FA07F7CB401F4357
:10052000CE402F606E600021BDE8F0871046F7E6F0
:100530008946DEE64645EAD2B8EB020A69EB030ECD
:100540000138E4E77046D7E718468FE78146BDE7F4
:10055000114676E702383C4444E7084606E7023A8B
:100560003E442BE7704700BF38B50E4B0546187860
:100570004FF47A73B3FBF0F30B4A1068B0FBF3F05F
:1005800000F044FB044658B90F2D09D8024629460D
:100590004FF0FF3000F0FAFA044B20461D6038BDE2
:1005A000012038BD000000200C00002004000020C5
:1005B000074A08B51368032043F01003136000F0E6
:1005C000D3FA0F20FFF7D0FF03F080FC002008BD16
:1005D00000200240034A044B11681B780B4413604F
:1005E000704700BF4052002000000020014B1868F7
:1005F000704700BF40520020044B1B680360044B4F
:100600001B684360034B1B6883607047E8F7FF1F5C
:10061000ECF7FF1FF0F7FF1F70477047036810B536
:100620005A680446900627D51A68910724D5A26A0D
:10063000D2065EBFA26A42F40072A2629A6802F415
:100640006022B2F5602F10D1E26872B95A6822F0C8
:1006500020025A60A36A23F48073A362A36ADB04B6
:100660005EBFA36A43F00103A3622046FFF7D4FFF5
:100670006FF0120223681A6023685A68100630D59A
:100680001A6851072DD5A26AD2065EBFA26A42F44B
:100690000052A2629A6802F4E042B2F5E04F0AD03A
:1006A0005A68500516D49A6802F46022B2F5602F99
:1006B00010D1E26872B95A6822F080025A60A36AC7
:1006C00023F48053A362A36AD9055EBFA36A43F0F3
:1006D0000103A362204603F039FA6FF00C0223688D
:1006E0001A6023685A6852060DD51B68DB070AD5C5
:1006F000A36A204643F48033A362FFF78EFF6FF0B6
:10070000010223681A6010BD002373B501930368CA
:1007100004469A68D20702D5002002B070BD9A68DC
:1007200042F001029A60124B124A1B68B3FBF2F3CB
:100730000193019BC3B9FFF759FF064623689D68E3
:1007400015F00105E8D1FFF751FF801B0228F5D90C
:10075000A36A84F8245043F01003A362E36A0120E3
:1007600043F00103E362D8E7019B013BE0E700BFF0
:100770000C00002040420F0038B5036804469A6818
:10078000D20701D4002038BD9A6822F001029A6095
:10079000FFF72CFF054623689B68DB07F2D5FFF7C0
:1007A00025FF401B0228F6D9A36A012043F010035D
:1007B000A362E36A43F00103E36238BD70B5044607
:1007C000002871D0836A23B9C36280F8243003F013
:1007D000A5FB2046FFF7D0FFA36A13F0100FA36A12
:1007E00064D1002862D1E16923F48853626823F060
:1007F000020343F002030A43A168A362E368B1F570
:10080000807F42EA430238D0012914BF06464FF4E4
:1008100080766569012D07D1002B30D1A369013B9A
:1008200046EA433545F400662368B1F5807F5D688C
:1008300025F4694545EA06055D609E681D4D05EA9B
:10084000060545EA02059D6001D0012920D12169F4
:1008500001390905DD6A25F470052943D9629968D3
:10086000154B0B409A4215D10023E362A36A23F093
:10087000030343F00103A36270BD0E46C9E7A36AF8
:1008800043F02003A362E36A43F00103E362CBE792
:100890000021DFE7A36A23F0120343F01003A362F1
:1008A000E36A43F00103E362012070BD43F01003EB
:1008B000A362F9E7FDF7E1FFFE0E1FFF90F8243079
:1008C00010B5012B04464ED0012380F82430FFF7E9
:1008D0001BFF002843D1A36A244A23F4405323F08A
:1008E000010343F48053A3622368934205D1A2F528
:1008F0008062526812F4702F29D1A26A22F4801209
:10090000A262A26A12F4807208BFE262002284F836
:1009100024206FF004021A605A6842F080025A6084
:100920005A68520520D49A6802F4E042B2F5E04FCA
:1009300011D10E4A934205D1A2F58062526812F499
:10094000702F08D19A6842F402129A6010BDA26A10
:1009500042F48012D4E79A6842F40042F5E700239B
:1009600084F8243010BD022010BD00BF00280140D3
:100970000329036807D0042903D0022905D1186C84
:100980007047986C7047586C7047D86B7047000080
:10099000F7B50246002092F824300190012B00F0B8
:1009A000D8800127D2F808E082F824704E681368D6
:1009B0000D68BEF1000F7BD1BE4273D170469C6BB7
:1009C000A40DA40544EAC5349C639C68E40707D4DD
:1009D0009C68CF6924F4E04424F001043C439C600B
:1009E0008C69012C0DD1CF69B7F5E04F17BF906A24
:1009F0005F6840F02000906212BF204647F4806795
:100A00005F604F69012F05D1002C74D15C6844F4FC
:100A100080545C60092D4FEA4504D1F808E070D994
:100A20004FF0070C2C44DF681E3C0CFA04FC27EA4C
:100A30000C070EFA04F43C43DC60A5F11004012C11
:100A400098BF9F68DFF81CE19CBF47F400079F60D8
:100A5000022ECF6862D0032E66D0012E6AD159696A
:100A600001EA0E0139435961012C16D83A498B42EB
:100A700069D19968090210D49968102D41F40001D8
:100A800099600AD1354B36491B68B3FBF1F10A2353
:100A90004B430193019B002B52D1002382F8243059
:100AA00003B0F0BD946A384644F0200494628CE7A9
:100AB0000F69D3F838E0F41B04EB8404BE4204F160
:100AC0000F0410D807F1FF3C05FA04F747EA0C576A
:100AD0004FF01F0C0CFA04F444F440142EEA040402
:100AE0003C439C6371E71F2707FA04F444F4401465
:100AF0002EEA0404F5E7906A40F020009062384640
:100B000088E74FF0070C1F692C440CFA04FC27EA15
:100B10000C070EFA04F43C431C618EE7996901EA64
:100B20000E01394399619FE7D96901EA0E01394302
:100B3000D96199E7196A01EA0E013943196293E70D
:100B4000019B013BA5E7936A012043F020039362D8
:100B5000A3E70220A4E700BF002401400C0000200E
:100B600040420F0000F0FFFF074A0002D36800F484
:100B7000E06023F4E0631B041B0C43F0BF6343F409
:100B800000330343D360704700ED00E0174B30B5EE
:100B9000DC68C4F30224C4F10703251D042B28BF1D
:100BA0000423062D4FF0010598BF002405FA03F336
:100BB00003F1FF3388BF033C1940A14005FA04F458
:100BC000013C2240002842EA01024FEA0212AFBF74
:100BD00000F16040064B00F00F00D2B2A5BFD2B2C8
:100BE00000F561401A5480F8002330BD00ED00E0AC
:100BF00014ED00E00123420900F01F0003FA00F0A9
:100C0000014B43F82200704700E100E00138B0F1E9
:100C1000807F0AD2F021064B064A586082F82310E2
:100C20000020072298601A6070470120704700BFBB
:100C300010E000E000ED00E010B5002832D00168BF
:100C4000194B1424994225D8184AA3F207430A44A1
:100C5000B2FBF4F2920002648468C36343680A68DA
:100C60002343C46822F47F522343046922F03002F4
:100C700023434469234384692343C46923431343BF
:100C80000B600122002380F82120836380F820304C
:100C9000184610BD064B0B44B3FBF4F39B000364F2
:100CA000044BD9E7012010BD07040240F8FFFDBF47
:100CB000F8FBFDBF00040240F0B590F82040012C85
:100CC00035D0012490F8215080F82040A5424FF003
:100CD00000064FF0020428D180F8214004688663A2
:100CE0002668076C26F001062660C66BBD4075605D
:100CF000636043680568102BC36A0BBFA260A160E4
:100D0000E160E2604BB1236843F00E0323602B687F
:100D1000002043F001032B60F0BD236823F004039F
:100D20002360236843F00A03F0E780F82060022084
:100D3000F0BD000090F8213010B5022B03D0042341
:100D40008363012010BD03681A6822F00E021A6046
:100D50001A6822F001021A60294A934224D902F546
:100D60006272934219D01432934218D014329342D3
:100D700017D0143293420CBF4FF480534FF480339A
:100D8000204A53600123002480F82130436B80F80F
:100D900020409BB39847204610BD0123F0E7102365
:100DA000EEE74FF48073EBE717498B4216D014310E
:100DB0008B4215D014318B4214D014318B4214D095
:100DC00014318B4214D014318B4214D0934214BF8F
:100DD0004FF480334FF080730C4AD2E70123FBE7D6
:100DE0001023F9E74FF48073F6E74FF48053F3E7ED
:100DF0004FF48033F0E74FF48013EDE7184610BD51
:100E0000800002400004024008000240000002404E
:100E100070B40425C66B026C3468036895402542A3
:100E2000196855D04D0753D51A6896065EBF1A68E3
:100E300022F004021A60604A93421FD902F56272DE
:100E4000934214D01432934213D01432934212D0EE
:100E5000143293420CBF4FF480434FF48023574A1F
:100E60005360C36A002B00F0A58070BC18470423B0
:100E7000F5E74023F3E74FF48063F0E750498B42F6
:100E800016D014318B4215D014318B4214D014314A
:100E90008B4214D014318B4214D014318B4214D0B5
:100EA000934214BF4FF480234FF08063454AD7E745
:100EB0000423FBE74023F9E74FF48063F6E74FF4A0
:100EC0008043F3E74FF48023F0E74FF48003EDE72E
:100ED00002259540254257D08D0755D51A689406AE
:100EE00006D41A6822F00A021A60012280F8212032
:100EF000314A93421ED902F56272934213D01432E2
:100F0000934212D01432934211D0143293420CBF48
:100F10004FF400534FF40033284A5360002380F805
:100F20002030836A9EE70223F6E72023F4E74FF49C
:100F30000073F1E722498B4216D014318B4215D051
:100F400014318B4214D014318B4214D014318B42A3
:100F500014D014318B4214D0934214BF4FF4003399
:100F60004FF00073174AD8E70223FBE72023F9E785
:100F70004FF40073F6E74FF40053F3E74FF40033F8
:100F8000F0E74FF40013EDE708259540254211D016
:100F900009070FD5196821F00E011960012303FA22
:100FA00002F27260836380F82130002380F82030E1
:100FB000036B57E770BC704780000240000402409A
:100FC0000800024000000240114AD36813F01003E9
:100FD00005D01049CB6943F00203CB611023D268DE
:100FE000500706D50B4943F00403CA6942F00102D9
:100FF000CA61074AD169C90708D50648C16941F0E5
:101000000401C161D16921F00101D161D360704750
:101010000020024048520020064B186910F0800062
:1010200007D0054A5A6002F188325A601869C0F345
:10103000C01070470020024023016745034A00208A
:10104000136943F080031361704700BF0020024022
:10105000F8B50646FFF7CAFA114C07462546E3687D
:10106000D80712D4E368990644BF2023E360EB68F5
:10107000DA0606D4EB69DB0703D4E86810F0040055
:1010800002D0FFF7A1FF0120F8BD731CE7D00EB915
:101090000320F8BDFFF7AAFAC01B8642DFD2F7E7AC
:1010A000002002402DE9F84F1F4C9946237E05464B
:1010B000012B0F46904633D001234CF2503023765B
:1010C000FFF7C6FF40BB012D03D0022D0CBF022548
:1010D00004250026B246DFF854B0320140464946A6
:1010E000FFF7AEF8C4F81CA0DBF8103080B243F074
:1010F0000103CBF8103027F816004CF25030FFF700
:10110000A7FFDBF8103023F00103CBF8103018B93B
:101110000136F3B29D42E0D800232376BDE8F88F74
:101120000220BDE8F88F00BF485200200020024096
:101130000022064BDA61064B1A6942F004021A617A
:101140001A6942F040021A61704700BF48520020FD
:10115000002002400022064BDA61064B1A6942F079
:1011600002021A6158611A6942F040021A6170471E
:1011700048520020002002402DE9F041234D07464F
:101180002B7E8846012B3DD0012403682C76022B50
:101190004CF2503013D1FFF75BFF20B10120002348
:1011A0002B76BDE8F081FFF7C3FF4CF25030FFF71C
:1011B0004FFF174A136923F004031361EFE7FFF7AA
:1011C00047FF0028EAD14FF0FF33C8F8003020462F
:1011D000BE680F4CFA68BB6803EBC2239E42DED2A6
:1011E0003046FFF7B7FF4CF25030FFF731FF23696D
:1011F00023F00203236110B1C8F80060CFE706F5C1
:101200000066E7E70220BDE8F08100BF48520020F9
:10121000002002402DE9F74F00221646654BDFF80B
:10122000A4E1DFF8A4C14FF001080C6808FA06F841
:1012300008EA0404A0457FD14D68122D00F0AF806C
:1012400000F28880022D00F0A7807CD8002D00F0ED
:101250008E80012D00F09E804FF00F09FF2C93BF70
:10126000824606F18045083DD0F800B092BFB50037
:10127000D0F804B0AD0009FA05F82BEA080802FA24
:1012800005F588BF00F1040A48EA0505CAF80050D0
:10129000D1F804A01AF0805F4ED0474D464FAD699B
:1012A00026F0030845F00105BD61BD6908F18048DD
:1012B00005F00105019508F5803806F0030B019D46
:1012C0004FEA8B0BD8F8085009FA0BF925EA0909FF
:1012D0003A4DA84268D005F58065A84266D005F56C
:1012E0008065A84264D005F58065A8420CBF03253F
:1012F000042505FA0BF545EA0905C8F808501D68EC
:101300001AF4803F14BF2543A5431D605D681AF49D
:10131000003F14BF2543A5435D609D681AF4801FFC
:1013200014BF2543A5439D60DD681AF4001F14BF58
:101330002C4325EA0404DC600136102E7FF473AFE1
:1013400003B0BDE8F08F032D22D0112D84D1CA68DF
:10135000043281E71A4FBD4209D012D8DFF86C90F1
:101360004D4504D009F580394D457FF475AF8A6845
:10137000C2B1012A0CBFC0F81080C0F81480082246
:101380006AE77545F3D06545F1D0DFF84490EBE7A7
:10139000002261E7CA685FE7CA6808325CE7CA688A
:1013A0000C3259E7042257E70025A2E70125A0E700
:1013B00002259EE7000401400010024000080140A1
:1013C0000000211000003110000032100000111048
:1013D000000022108368194214BF012000207047CA
:1013E0000AB1016170470904FBE7C3685940C16055
:1013F0007047000003682DE9F341DB07054614D46C
:101400002B689F0762D42B68190700F199802B681D
:101410005A0700F1C380EA6A002A40F031812A6A43
:10142000002A40F08481002014E0904C636803F0AF
:101430000C03042B07D0636803F00C03082B0CD1BA
:101440006368DE0309D523689C03D9D5AB68002BFC
:10145000D6D1012002B0BDE8F081AB68B3F5803F82
:1014600010D1236843F480332360FFF7BFF80646AA
:1014700023689803C4D4FFF7B9F8801B6428F7D910
:101480000320E7E79BB9236823F4803323602368B4
:1014900023F480232360FFF7A9F806462368990305
:1014A000AED5FFF7A3F8801B6428F7D9E8E7B3F5BA
:1014B000A02F236803D143F480232360D1E723F4D2
:1014C00080332360236823F48023CDE7674C63686F
:1014D00013F00C0F07D0636803F00C03082B10D136
:1014E0006368DA030DD423689B0702D56B69012B6F
:1014F000AFD12368AA6923F0F80343EAC20323604B
:1015000081E76A695A4B6AB101221A60FFF76EF8E7
:10151000064623689F07ECD4FFF768F8801B022873
:10152000F7D9ADE71A60FFF761F806462368980718
:101530007FF569AFFFF75AF8801B0228F6D99FE7BD
:10154000EA694A4C4B4BDAB101221A60FFF74EF8B8
:101550000646636A9B070DD54FF4FA52464B1B684B
:10156000B3FBF2F3019300BF019B5A1E0192002BC3
:10157000F9D14CE7FFF73AF8801B0228E9D97FE759
:101580001A60FFF733F80646636A9F077FF53FAF9F
:10159000FFF72CF8801B0228F6D971E7334CE3697A
:1015A000DE0024D40127E36943F08053E361E3695B
:1015B00003F080530093009B304E3368D80518D554
:1015C0002B69012B26D1236A43F001032362FFF725
:1015D0000DF841F288368046236A9A073FD5002FDE
:1015E0003FF419AFE36923F08053E36113E7002769
:1015F000E2E7336843F480733360FEF7F7FF804619
:101600003368D905DCD4FEF7F1FFA0EB08006428AD
:10161000F6D935E7ABB9236A41F2883823F00103E4
:101620002362236A23F004032362FEF7DFFF0646EA
:10163000236A9B07D3D5FEF7D9FF801B4045F7D916
:101640001EE7052B236A03D143F004032362BAE7A4
:1016500023F001032362236A23F00403B6E7FEF7B5
:10166000C5FFA0EB0800B042B6D909E70010024060
:1016700000004242800442420C0000200070004002
:101680004F4C6368D80308D5636803F00C03082B3C
:1016900003D1E36AD9033FF5DCAE022A33D12368D4
:1016A000DA0006D5E36A6A6B03F0F00393427FF435
:1016B000D0AE0023434E3360FEF798FF0746236801
:1016C0001B011AD4E36A6A6B23F0F0031343E3624D
:1016D000E36A2A6B23F470631343E36201233360EC
:1016E000FEF784FF064623681F013FF598AEFEF71C
:1016F0007DFF801B6428F6D9C2E6FEF777FFC01B8A
:101700006428DCD9BCE60022E36A23F48033E36278
:101710002C4B1A60FEF76AFF0646236818017FF516
:101720007EAEFEF763FF801B6428F6D9A8E6244C42
:10173000636803F00C03082B3FF48BAE0023224EAA
:10174000022A33602FD1FEF751FF07462368990123
:1017500023D46B6AB3F5803F09D1E26A69680A4312
:10176000E262E26AE96822F00F020A43E262A96AD1
:1017700062680B4322F474121343636001233360E5
:10178000FEF734FF054623689A013FF54CAEFEF79D
:101790002DFF401B0228F6D972E6FEF727FFC01B7B
:1017A0000228D3D96CE6FEF721FF054623689B018A
:1017B0007FF539AEFEF71AFF401B0228F6D95FE627
:1017C000001002406800424260004242F0B589B019
:1017D0006A462A4B03F1080514461868596808330D
:1017E00003C4AB422246F7D118689B882060A380CF
:1017F000234B04AC03F110052246186859680833DE
:1018000003C2AB421446F7D11E494B6803F00C02E9
:10181000082A31D1C3F3834208A80244DB0312F83B
:10182000206C26D5CB6A03F00F03034413F8102C69
:10183000CB6A13F4803F144B16D0CF6ACC6AC4F342
:1018400003240234A4FB0645A4FB030103FB05119A
:10185000C7F303130133A3FB0223FEF7FDFC0D2E98
:1018600000D1400809B0F0BD03FB06F0B0FBF2F078
:10187000F5E706487043F5E70348F3E7B455000879
:10188000C25500080010024000127A0000093D0015
:10189000544A2DE9F0411368054603F007038B42D3
:1018A0000E462AD329688C0734D4CA0747D44D4A38
:1018B000136803F007039E42C0F082802A684A4CF6
:1018C00012F0040F40F08780130706D563682A6979
:1018D00023F4605343EAC2036360FFF777FF636852
:1018E000424AC3F30313D35CD840414B18600F2026
:1018F000FEF73AFE0020BDE8F081136823F00703ED
:101900000B431360136803F007039942CAD0012008
:10191000BDE8F081344B11F0040F1EBF5A6842F449
:10192000E0625A60080742BF5A6842F460525A6047
:101930005A68A86822F0F00202435A60B5E76A6864
:10194000294C012A23681CD113F4003FDFD06368BF
:1019500041F2883823F0030313436360FEF746FE29
:101960006B680746012B14D1636803F00C03042B4A
:101970009DD0FEF73BFEC01B4045F5D90320BDE8D6
:10198000F081022A02D113F0007FDFE713F0020F8B
:10199000DCE7022B0FD1636803F00C03082B86D021
:1019A000FEF724FEC01B4045F5D9E7E7FEF71EFE13
:1019B000C01B4045E2D8636813F00C0FF6D176E700
:1019C000136823F0070333431360136803F007031E
:1019D0009E429CD172E76368E96823F4E0630B439D
:1019E000636071E70020024000100240CC560008FE
:1019F0000C000020044B054A5B68C3F30223D35C50
:101A0000034A1068D840704700100240DC560008B6
:101A10000C000020044B054A5B68C3F3C223D35C6F
:101A2000034A1068D840704700100240DC56000896
:101A30000C00002003682DE9F34113F0010F054667
:101A4000574C1FD0E369DA0047D40127E36943F01C
:101A50008053E361E36903F080530193019B514E8E
:101A60003368DB053BD5236A13F440734BD1236AFB
:101A70006A6823F44073134323621FB1E36923F0C0
:101A80008053E3612A68930705D56368A96823F446
:101A900040430B436360570705D5E36AE96823F4C5
:101AA00000330B43E362160705D5E36A2A6923F482
:101AB00080231343E362E36A980366D4E36A59031D
:101AC00063D4286810F010001AD06368EA6923F420
:101AD000800313436360002012E00027BFE73368F0
:101AE00043F480733360FEF781FD80463368D80588
:101AF000B9D4FEF77BFDA0EB08006428F6D90320DB
:101B000002B0BDE8F0816A6802F440729342AED040
:101B10000120254A236A1060002023F440711060E0
:101B20002162D907A3D5FEF761FD41F28838064648
:101B3000236A9A079BD4FEF759FD801B4045F7D9CD
:101B4000DDE72368A96913F0806F04D0E26A02F030
:101B5000F0028A4222D1E36A23F0F0030B43E362EE
:101B6000E36A6A6923F4704313430122E3620F4B73
:101B70001A60FEF73BFD064623689A00A1D4FEF7E3
:101B800035FD801B6428F7D9B9E72368DB00D8D579
:101B9000E36A6A6903F47043934292D00120AFE78D
:101BA0000010024000700040400442427000424277
:101BB0000368DA6822F49072DA605A6922F001024E
:101BC0005A61202380F83A30704700002DE9F04731
:101BD0000568C2682B69016923F4405313432B61E4
:101BE0008368EA680B43416922F4B05222F00C0288
:101BF0000B431343EB606B69826923F44073134317
:101C00006B61404B81469D424FF0190446D1FFF76E
:101C100001FF04FB00F3D9F804604FF06408B6003C
:101C2000B3FBF6F3B3FBF8F31E01FFF7F3FE6043DB
:101C3000D9F804309B00B0FBF3F7FFF7EBFE6043ED
:101C4000D9F804309B00B0FBF3F3B3FBF8F308FBC7
:101C500013731B013233B3FBF8F303F0F007FFF704
:101C6000D9FE6043D9F804209200B0FBF2FAFFF7E6
:101C7000D1FE6043D9F804309B00B0FBF3F3B3FB13
:101C8000F8F308FB13A31B013233B3FBF8F303F0A3
:101C90000F033B433344AB60BDE8F087FFF7AAFE78
:101CA00004FB00F3D9F804604FF06408B600B3FBFE
:101CB000F6F3B3FBF8F31E01FFF79CFE6043D9F87F
:101CC00004309B00B0FBF3F7FFF794FE6043D9F8B4
:101CD00004309B00B0FBF3F3B3FBF8F308FB137382
:101CE0001B013233B3FBF8F303F0F007FFF782FE7A
:101CF0006043D9F804209200B0FBF2FAFFF77AFEB5
:101D0000B7E700BF00380140F8B504460E46174655
:101D10001D4621680B6836EA030301D10020F8BD97
:101D20006B1CF7D095B923680320DA6822F4D072CF
:101D3000DA605A6922F001025A61202384F83930AE
:101D400084F83A30002384F83830F8BDFEF74EFCB2
:101D5000C01B8542DDD2E6E710B5044640B390F8DB
:101D6000393003F0FF021BB980F8382002F00CF97B
:101D70002423226884F83930D368204623F40053A2
:101D8000D360FFF723FF236800201A6922F49042F2
:101D90001A615A6922F02A025A61DA6842F4005242
:101DA000DA602023E06384F8393084F83A3010BDDB
:101DB000012010BD2DE9F0411F4690F8393004464E
:101DC000202B0D4690464ED1002949D0002A47D0FD
:101DD00090F83830012B46D0012380F838300023AA
:101DE000C363212380F83930FEF700FC0646A4F8CF
:101DF0002480A4F82680E38C9BB26BB93B46324624
:101E000040212046FFF780FFA8B9202384F838003E
:101E100084F83930BDE8F081E38C3246013B9BB257
:101E2000E384A3688021B3F5805F20463B460ED152
:101E3000FFF76AFF10B10320BDE8F0812B8822680C
:101E4000C3F308035360236943B90235D3E7FFF7AF
:101E50005BFF0028EFD123682A785A600135CAE772
:101E60000120BDE8F0810220BDE8F08190F83A3011
:101E7000202B20D1E9B1E2B190F83830012B1AD0F3
:101E8000C285828500232222C36380F83A2002683B
:101E90008162D16880F8383041F48071D160516935
:101EA000184641F001015161D16841F02001D16033
:101EB00070470120704702207047000038B5044683
:101EC000134694F83920202A2AD139B333B394F831
:101ED0003820012A24D00122002584F8382021222C
:101EE000E384206BE56384F839200E4AA3842162E1
:101EF00082620D4A4563C2620C4A02632268043260
:101F0000FEF7DAFE6FF04002236828461A605A692D
:101F100084F8385042F080025A6138BD012038BD43
:101F2000022038BD331F0008611F0008E91F0008A8
:101F3000704708B50368426A1B6813F020030AD192
:101F4000D38413685A6922F080025A61DA6842F039
:101F50004002DA6008BD1046FFF7EAFF08BD70478F
:101F600008B5406AFFF7FBFF08BD90F83A3010B59E
:101F7000222B36D183680169B3F5805F0268836ADA
:101F800023D15268E9B9C2F3080223F8022B836215
:101F9000C48D013CA4B2C4858CB90368DA6822F010
:101FA0002002DA60DA6822F48072DA605A6922F07C
:101FB00001025A61202380F83A3001F08BFD0020A5
:101FC00010BDD2B223F8012BE1E721B9591C5268A8
:101FD00081621A70DCE75268591C816202F07F024C
:101FE000F7E7022010BD7047416A08B50B685A69CF
:101FF00091F8390021280AD1120608D50022CA8496
:10200000DA6822F0C002DA60202281F839205B69A8
:1020100091F83A20222A06D15B0604D5002308460F
:10202000CB85FFF7C5FDCB6B084643F01003CB63B0
:10203000FFF7D9FF08BD0000036870B51A680446B1
:102040001607D9685D6907D196065AD58D0658D509
:10205000BDE87040FFF789BF15F0010502D111F40A
:10206000907F4ED0D30705D5CE0542BFE36B43F03A
:102070000103E363500704D51DB1E36B43F0020392
:10208000E363930704D51DB1E36B43F00403E363FB
:10209000160704D51DB1E36B43F00803E363E36B5C
:1020A000002B66D0950604D5880602D52046FFF79A
:1020B0005CFF236820465D69E26B110702D415F0CE
:1020C00040051AD0FFF774FD23685A69520610D5EF
:1020D0005A69606B22F040025A6150B1254B43634C
:1020E000FEF728FE002844D0606BBDE87040436BCB
:1020F00018472046FFF777FF70BDFFF774FFE563D1
:1021000070BD160627D50D0625D594F83920212A4D
:102110002FD1A268B2F5805F226A17D11188C1F36E
:1021200008015960216979B902322262E28C013AD0
:1021300092B2E284EAB9DA6822F08002DA60DA6800
:1021400042F04002DA6070BD0132EEE7511C2162BC
:1021500012785A60EAE750060BD54A0609D5DA68C4
:10216000204622F04002DA60202384F83930FFF75D
:10217000DFFE70BD7921000808B50023406AC385E1
:10218000C384FFF730FF08BD08B500F06FFE0020E4
:1021900008BD08B501F0FCF8012803D0BDE80840EF
:1021A00000F0E8B808BD00F1080343604FF0FF32CB
:1021B000C3600361002382600360704700230361F2
:1021C000704743689A684B608A609A68516099606A
:1021D000036808610133036070470A6830B5531C17
:1021E0000AD103695A684A6091608B60596003683C
:1021F00008610133036030BD00F108035C682568A5
:10220000AA42EFD32346F9E74168826803698A60EE
:10221000826851605968884208BF5A600022026192
:1022200018680138186070470A4B1B68013308D0E2
:102230004FF0500383F31188BFF36F8FBFF34F8FBD
:10224000FEE74FF0500383F31188BFF36F8FBFF3A6
:102250004F8FFEE70800002006480068006880F302
:10226000088862B661B6BFF34F8FBFF36F8F00DF90
:1022700000BF000008ED00E04FF0807340F8043C20
:10228000054B21F0010140F8081C40F80C3C40F8D7
:10229000202C4038704700BF2922000800000000B1
:1022A000074B19680868B0E8F00F80F30988BFF39E
:1022B0006F8F4FF0000080F311884EF00D0E7047C5
:1022C0003C5000204FF0500383F31188BFF36F8F11
:1022D000BFF34F8F0A4A13680133012B13600DD1EE
:1022E000084B1B6813F0FF0F08D04FF0500383F327
:1022F0001188BFF36F8FBFF34F8FFEE7704700BFAA
:102300000800002004ED00E0084A136843B94FF0CC
:10231000500383F31188BFF36F8FBFF34F8FFEE736
:10232000013B13600BB983F311887047080000204C
:10233000EFF30980BFF36F8F0D4B1A6820E9F00FA0
:1023400010602DE908404FF0500080F3118800F034
:1023500039FF4FF0000080F31188BDE8084019688C
:102360000868B0E8F00F80F30988BFF36F8F7047FB
:102370003C50002008B54FF0500383F31188BFF3A1
:102380006F8FBFF34F8F00F0B5FD18B14FF0805243
:10239000024B1A60002383F3118808BD04ED00E0AE
:1023A0004FF47A72054B1B68B3FBF2F3044A013B0E
:1023B00013600722034B1A60704700BF0C00002017
:1023C00014E000E010E000E013B51F4B00211A7884
:1023D000D2B20192FF221A701B781C4ADBB28DF830
:1023E00003309DF8033003F0500313700722184B9D
:1023F0001A609DF80300541E00061CD401B11A6037
:102400001A68120202F4E0621A60019B0E4ADBB203
:102410001370104B1A6842F470021A601A6842F086
:1024200070421A60FFF7BCFF00220B4B1A60FFF7E7
:1024300013FFFFF7F9FE9DF8032001215200D2B2ED
:102440008DF803202246D4E700E400E0FC010020E0
:102450000002002020ED00E008000020EFF30583DB
:102460000F2B0ED9104A9B5C104A12789A4208D959
:102470004FF0500383F31188BFF36F8FBFF34F8F7B
:10248000FEE70B4B0B4A1B68126803F4E0639342B0
:1024900008D94FF0500383F31188BFF36F8FBFF358
:1024A0004F8FFEE7704700BFF0E300E0FC01002023
:1024B0000CED00E00002002010B50F4B1A688242BC
:1024C00018D35C681919884201BF41681846091978
:1024D0005960446801198A4207D1084909688A424B
:1024E0001FBF51681268091941609842026018BF05
:1024F000186010BD1346E1E73450002004020020AC
:102500002DE9F041044600F0EDFC3D493D4D0B68DE
:10251000FBB93D4A002056070FBF44F6206307323F
:102520003A4B22F0070218BF9B1A1344384E083B5F
:1025300023F0070370603260586018600B60981ACF
:102540001360344B50601860334B18604FF00043F9
:102550002B602F68274216D1002C40D004F10803CD
:1025600058071CBF23F00703083363B12A4A1668D3
:102570009046B34207D8264A15686868834204D853
:1025800009688D4207D1002429E02C68002CF7D07F
:102590002A462546F1E7296814681160C21A102AF4
:1025A0000FD9E818410708D04FF0500383F3118882
:1025B000BFF36F8FBFF34F8FFEE742606B60FFF793
:1025C0007BFF6B681349F61A1F4300230868C8F89D
:1025D0000060864238BF0E6008346F602B6000F0E8
:1025E0001BFD630708D04FF0500383F31188BFF33E
:1025F0006F8FBFF34F8FFEE72046BDE8F08100BF2D
:10260000040200202850002008020020285000204A
:1026100034500020305000202C50002010B50446CB
:1026200070B3184A50F8043C1268134208D14FF0B6
:10263000500383F31188BFF36F8FBFF34F8FFEE713
:1026400050F8081C41B14FF0500383F31188BFF3D9
:102650006F8FBFF34F8FFEE723EA020340F8043C7D
:1026600000F040FC084A54F8043C1168A4F108004A
:102670000B441360FFF720FFBDE8104000F0CCBC16
:1026800010BD00BF285000202C50002070B515460A
:10269000026C0446866B42B905689DB9406800F03B
:1026A000CFFE65600136A66370BD6DB9806801F02C
:1026B00053FEA368226C13446268A360934201D363
:1026C0002368A3600020EDE7C06801F045FE236C9D
:1026D000E2685B4221681A448A42E2603EBF626857
:1026E0009B18E360022DEDD10EB1013EEAE73046C2
:1026F000D8E703461A6C10B4084662B1D9685C6822
:102700001144A142D96028BF196810BC28BFD96004
:10271000D96801F021BE10BC704770B50446FFF7C0
:10272000D1FD94F8455004F124066DB2002D14DC5F
:10273000FF2384F84530FFF7E7FDFFF7C3FD94F86A
:10274000445004F110066DB2002D12DCFF2384F812
:102750004430BDE87040FFF7D7BD636A002BE7D077
:10276000304600F083FD08B100F00CFE013D6DB273
:10277000DCE72369002BE9D0304600F077FD08B193
:1027800000F000FE013D6DB2DEE7000038B50D46F9
:10279000044640B94FF0500383F31188BFF36F8FA5
:1027A000BFF34F8FFEE7FFF78DFD206CE36B2268D0
:1027B0004343D1181B1A13446160E3600021FF23D7
:1027C000A163A26084F8443084F8453095B9236948
:1027D00063B104F1100000F049FD38B14FF08052B0
:1027E000094B1A60BFF34F8FBFF36F8FFFF78CFD5C
:1027F000012038BD04F11000FFF7D5FC04F12400DE
:10280000FFF7D1FCF2E700BF04ED00E070B50D4624
:10281000064640B94FF0500383F31188BFF36F8F22
:10282000BFF34F8FFEE748434830FFF769FE044689
:1028300038B145B92060E663256401212046FFF7E1
:10284000A5FF204670BD00F148030360F3E70000D8
:102850002DE9FF47894601921F46044640B94FF0D3
:10286000500383F31188BFF36F8FBFF34F8FFEE7E1
:10287000002940F08880036C002B00F084804FF02A
:10288000500383F31188BFF36F8FBFF34F8FFEE7C1
:10289000019E002E00F082804FF0500383F31188D8
:1028A000BFF36F8FBFF34F8FFEE7019D1DB9FFF799
:1028B0002BFD002058E016B902A800F019FDFFF723
:1028C00023FD00F00FFBFFF7FDFC94F84430FF2BD5
:1028D00008BF84F8448094F84530FF2B08BF84F883
:1028E0004580FFF711FD01A902A800F011FD0028A5
:1028F00043D1FFF7E7FCA66BE56BFFF705FDAE42A2
:1029000035D1019904F1100000F096FC2046FFF744
:1029100004FF00F081FB38B94FF08053CAF8003053
:10292000BFF34F8FBFF36F8F0126FFF7CBFCA26B76
:10293000E36B9A4201D3022FB7D13A46494620466B
:10294000FFF7A4FE636A1BB104F1240000F08EFCC3
:1029500038B14FF08052184B1A60BFF34F8FBFF35E
:102960006F8FFFF7D1FC012004B0BDE8F08720464F
:10297000FFF7D3FE00F050FBD6E72046FFF7CDFE71
:1029800000F04AFB95E7022F02D1E36B012B0AD13D
:1029900000F0FEFC00283FF47BAF00264FF000085B
:1029A000DFF814A0C1E74FF0500383F31188BFF3A1
:1029B0006F8FBFF34F8FFEE704ED00E02DE9F84382
:1029C000884691461F46044640B94FF0500383F3B2
:1029D0001188BFF36F8FBFF34F8FFEE709BB036C06
:1029E000FBB14FF0500383F31188BFF36F8FBFF338
:1029F0004F8FFEE704F1240000F038FC002834D0AB
:102A0000B9F1000F31D00120C9F8000086F3118818
:102A1000BDE8F88301356DB284F8455025E000200B
:102A2000F4E7022F02D1E36B012B20D1FFF716FD53
:102A3000EFF311864FF0500383F31188BFF36F8FCC
:102A4000BFF34F8FA26BE36B9A4201D3022FE6D103
:102A500094F845503A466DB241462046FFF716FEBF
:102A60006B1CD7D1636A002BC4D10120CEE74FF095
:102A7000500383F31188BFF36F8FBFF34F8FFEE7CF
:102A80002DE9FF47884601929946044640B94FF028
:102A9000500383F31188BFF36F8FBFF34F8FFEE7AF
:102AA000002940F0A580036C002B00F0A1804FF0BE
:102AB000500383F31188BFF36F8FBFF34F8FFEE78F
:102AC000019E002E00F09A804FF0500383F311888E
:102AD000BFF36F8FBFF34F8FFEE7636AE660002B93
:102AE0006DD004F124005FE0019D1DB9FFF70CFCDF
:102AF000284667E016B902A800F0FAFBFFF704FCCD
:102B000000F0F0F9FFF7DEFB94F84430FF2B08BF2C
:102B100084F8447094F84530FF2B08BF84F8457062
:102B2000FFF7F2FB01A902A800F0F2FB002852D146
:102B3000FFF7C8FBA56BFFF7E7FB002D45D1236826
:102B400033B9FFF7BFFB606800F032FCFFF7DCFB36
:102B5000019904F1240000F06FFB2046FFF7DDFD32
:102B600000F05AFA38B94FF08053CAF80030BFF37A
:102B70004F8FBFF36F8F0126FFF7A4FBA56B002DCE
:102B8000B2D041462046E668FFF7B3FDB9F1000F29
:102B9000A3D12368013DA56313B900F0A1FC6060D7
:102BA000236963B104F1100000F060FB38B14FF00D
:102BB0008052144B1A60BFF34F8FBFF36F8FFFF734
:102BC000A3FB012004B0BDE8F0872046FFF7A5FD78
:102BD00000F022FACFE72046FFF79FFD00F01CFA35
:102BE000FFF770FBA56BFFF78FFB002DC3D17FE7CD
:102BF00000F0CEFB00283FF463AF00260027DFF88B
:102C000004A0B9E704ED00E0064A13681968064B12
:102C100019B94FF0FF321A6070471268D268D26853
:102C20005268F8E74050002018510020F8B51B4BBF
:102C30001B4E1D68044630680F460430FFF7E4FA67
:102C4000334640B901203168164EC96A326888405F
:102C500022EA00023260621C07D137B119681248BB
:102C60000431BDE8F840FFF7ACBA2C441A68A5421D
:102C7000546007D90D4A10681968BDE8F84004315E
:102C8000FFF7ABBA0A4A106819680431FFF7A5FAD2
:102C9000084B1A68944238BF1C60F8BD6051002090
:102CA0003C500020E85000203851002044500020C3
:102CB00040500020185100204FF0500383F311883A
:102CC000BFF36F8FBFF34F8FFEE700002DE9F84F82
:102CD0004FEA820A804650460F4699460B9EFFF700
:102CE0000FFC0546002800F096805420FFF708FCF2
:102CF0000446002800F08C80AAF1040A05635544BC
:102D00007B1E25F0070A00F134020F37597802F8CC
:102D1000011B13F8011F09B1BB42F7D10A9D4FF007
:102D2000000B062D28BF0625271DE5626564384681
:102D300084F843B0C4F848B0FFF740FAC5F107057E
:102D400004F11800FFF73AFAC4F84CB02461A56109
:102D5000646284F850B04A4641465046FFF78CFA08
:102D6000206006B13460FFF7ADFA324B324E1A687C
:102D7000DFF8F08001321A603568002D4ED13460E2
:102D80001B68012B1DD108EB05001435FFF70BFA6A
:102D90008C2DF8D1DFF8D090284D4846FFF703FA84
:102DA0002846FFF700FA2648FFF7FDF92548FFF708
:102DB000FAF92548FFF7F7F9244BC3F80090244BA4
:102DC0001D600125234A24491368086801331360F4
:102DD000E26A05FA02F3034314200B6000FB028051
:102DE0003946FFF7EEF9FFF78FFA1C4B1B6863B10A
:102DF0003368DA6AE36A9A4207D24FF08052184B7E
:102E00001A60BFF34F8FBFF36F8F2846BDE8F88F6E
:102E10002846FFF703FC4FF0FF35F6E70F4B1B6822
:102E2000002BCED13368DA6AE36A9A4298BF3460E5
:102E3000C7E700BFD45000203C50002000510020C4
:102E4000205100204C5100203851002040500020DB
:102E500044500020E4500020E8500020345100206D
:102E600004ED00E048500020EC50002013B5002491
:102E7000164B009401938022234615491548FFF70D
:102E800025FF012814D14FF0500383F31188BFF3BD
:102E90006F8FBFF34F8F4FF0FF320F4B1A600F4B06
:102EA00018600F4B1C6002B0BDE81040FFF78CBAF1
:102EB000013008D14FF0500383F31188BFF36F8FB7
:102EC000BFF34F8FFEE702B010BD00BF14510020CA
:102ED00008560008513100081851002034510020D4
:102EE00060510020024A136801331360704700BF2D
:102EF000E05000202DE9F84F3C4B1B68002B53D1CC
:102F00003B4B1C6801341C60BCB93A4B1A68126810
:102F100042B14FF0500383F31188BFF36F8FBFF3BB
:102F20004F8FFEE7344A1968106818601160334A01
:102F3000136801331360FFF767FE314D4FF0000B4C
:102F40002B68304F9C423ED3DFF8A880DFF8C49056
:102F5000D8F80020126872BB4FF0FF322A6032E0CE
:102F600006F1040A5046FFF74FF9B16A19B106F1AC
:102F70001800FFF749F901224FF0140EF06AD9F852
:102F8000003002FA00F119431F4BC9F800100EFB84
:102F900000305146FFF715F93868F16AC26A91426C
:102FA00028BF4FF0010BD3E7184A4FF0000B13680E
:102FB0000133136011E0D8F80020D268D668716838
:102FC0008C42CDD229603A680F4BD16A14224A4311
:102FD0009A58022A28BF4FF0010B0D4A1268002AA6
:102FE00018BF4FF0010B5846BDE8F88FE0500020A5
:102FF0006051002040500020445000201C5100200F
:10300000185100203C50002048500020DC50002087
:1030100064510020E85000202DE9F843314C23682A
:1030200043B94FF0500383F31188BFF36F8FBFF3A1
:103030004F8FFEE7FFF746F92368013B23602468C2
:103040002CB10024FFF760F92046BDE8F883264B39
:103050001B68002BF5D0DFF8A890244FDFF8A48080
:10306000D9F80030E3B90CB1FFF7CEFD204D2C6844
:1030700044B101271F4EFFF73DFF00B13760013C0F
:10308000F9D12C601B4B1B68002BDAD04FF080521B
:10309000194B1A60BFF34F8FBFF36F8F0124D1E735
:1030A000D9F80C300125DC68261D04F11800FFF763
:1030B000ABF83046FFF7A8F81420E26A396805FA41
:1030C00002F30B4300FB028031463B60FFF779F8C7
:1030D0000A4BE26A1B68DB6A9A4224BF054B1D60FB
:1030E000BEE700BFE0500020D4500020E850002090
:1030F000DC5000206451002004ED00E03C50002032
:10310000205100204850002008B540B94FF08052AF
:103110000D4B1A60BFF34F8FBFF36F8F08BD0B4B82
:10312000196841B14FF0500383F31188BFF36F8FDB
:10313000BFF34F8FFEE7FFF7D5FEFFF777FDFFF7F1
:103140006BFF0028E2D008BD04ED00E0E050002055
:1031500008B5174E174C236863B9174B1B68012B32
:10316000F8D94FF08052154B1A60BFF34F8FBFF361
:103170006F8FEFE7FFF7B6FE3568FFF74DFF002DC5
:10318000E9D0FFF79FF8F368DD68281DFFF73CF8EA
:103190000B4A1368013B13602368013B2360FFF770
:1031A000B3F8286BFFF73AFA2846FFF737FAD2E769
:1031B0004C510020D85000204850002004ED00E081
:1031C000D4500020174B10B51A68174B12B10122CA
:1031D0001A6010BD1A60154B1B68B3FA83F31422F2
:1031E000DBB2C3F11F035A4311498C58881844B904
:1031F0004FF0500383F31188BFF36F8FBFF34F8FEE
:10320000FEE74468083264680A44944208BF626872
:10321000446008BF4260142202FB03135B68DA6853
:10322000044BD5E7E050002064510020E850002016
:10323000485000203C50002010B50C4640B94FF0DB
:10324000500383F31188BFF36F8FBFF34F8FFEE7F7
:10325000054B19681831FEF7C0FF2046BDE8104045
:103260000121FFF7E3BC00BF3C50002038B5C36824
:10327000DC6844B94FF0500383F31188BFF36F8FBC
:10328000BFF34F8FFEE704F118052846FEF7BCFF99
:10329000114B1B68E3B9251D2846FEF7B5FF012336
:1032A0000E49E26A08689340034314200B602946E4
:1032B0000B4B00FB0230FEF784FF0A4BE26A1B68EF
:1032C000DB6A9A4285BF0120074B0020186038BD99
:1032D00029460648EFE700BFE0500020E8500020F4
:1032E000485000203C500020645100202051002014
:1032F00008B508B9FFF7E0FC034B1B680360034BFC
:103300001B68436008BD00BF1C51002060510020B5
:1033100038B50D46044640B94FF0500383F3118889
:10332000BFF36F8FBFF34F8FFEE741B94FF05003EC
:1033300083F31188BFF36F8FBFF34F8FFEE7FEF764
:10334000C1FF0E4B19682B685A1C10D00C4A20681C
:1033500012689042626801D091420DD2881A83426D
:103360000AD95B1A13442B602046FFF7C1FF0024E3
:10337000FEF7CAFF204638BD0124F9E7605100205E
:103380001C5100200122014B1A607047645100203B
:10339000054B1B6833B1054B1B68002B0CBF02208B
:1033A000002070470120704734510020E050002079
:1033B0002DE9F0410446002839D01E4DC36A2A6821
:1033C000D26A934233D2142782691B4E002AA8BFC7
:1033D0002A6807FB0363A2BFD26AC2F107028261B7
:1033E00042699A4220D100F104084046FEF70CFFE2
:1033F000124A48B9E06A4743F3592BB901211368CF
:10340000814023EA010313602B681168D86A012305
:1034100083400B4313601423E062414603FB0060CA
:10342000BDE8F041FEF7CDBE2B68DB6AC362BDE8A4
:10343000F08100BF3C50002048500020E8500020A0
:10344000F8B5044608B90020F8BD224B1B68984225
:1034500008D04FF0500383F31188BFF36F8FBFF391
:103460004F8FFEE7836C43B94FF0500383F311880D
:10347000BFF36F8FBFF34F8FFEE7C16A426C013B12
:1034800091428364DFD0002BDDD1051D2846FEF775
:10349000BBFE114E114A50B91421E76A79437358A3
:1034A0002BB901201368B84023EA00031360636C52
:1034B000C3F10701E362A1610124116804FA03F07A
:1034C000084310601420294600FB0360FEF779FED4
:1034D0002046F8BD3C50002048500020E850002015
:1034E000044B1A681AB119688A6C01328A64186828
:1034F000704700BF3C5000202DE9F04100251B4ED5
:103500001B4FDFF8748020213046FDF763FF8542B2
:10351000044626D00120FFF7F7FD20213046FDF7B5
:1035200059FF854204461CD0D8B101228021304683
:10353000FDF756FF002204213846FDF751FF3220E7
:10354000FFF7E2FD082241464FF400530948FEF719
:1035500031FC3220FFF7D8FD012204213846FDF767
:103560003FFF0520FFF7D0FD2546CCE7000C0140CA
:10357000001401406C5300200D5600082DE9F84F4F
:103580000023504F4FF0FF3219463868FFF778FAA2
:103590004FF0000B4C4C00234FF0FF3219463868B7
:1035A000FFF76EFA01280646F5D1DFF82C91474D5A
:1035B00099F8002085F800B0DFF820A1DFF820811D
:1035C000002A64D0BAF80010B8F8002091420AD25C
:1035D000024608212046FDF703FF00220421204671
:1035E000FDF7FEFE2E7099F80120002A5BD0BAF894
:1035F0000220B8F802309A420BD201220221204662
:10360000FDF7EEFE002201212046FDF7E9FE012331
:103610002B702A782E4B002A52D14FF4FA701A7070
:10362000FFF772FD204600220421FDF7D9FE204657
:1036300000220121FDF7D4FE204600224FF4006154
:10364000FDF7CEFE00224FF400412248FDF7C8FEF0
:103650004FF4FA70FFF758FD204600220821FDF7CD
:10366000BFFE204600220221FDF7BAFE20460022BE
:103670004FF48051FDF7B4FE204600224FF48061E4
:10368000FDF7AEFE4FF47A70FFF73EFD83E7BAF820
:103690000000B8F800108842A5D908212046FDF79F
:1036A0009FFE32469AE7BAF80210B8F80230994203
:1036B000AFD902212046FDF793FE01221146A3E770
:1036C0000122AAE7F4520020001001402C520020F1
:1036D00028520020000801402D520020985100205F
:1036E0002052002008B5054C20464021FDF77DFE04
:1036F0004FF4FA70FFF708FDF6E700BF000C014039
:10370000012204210148FDF76BBE00BF00140140F7
:1037100037B52E4901222E4C2E48FEF7A7FB2E4826
:10372000FDF7CCF800F09CF82046FCF765FF94E824
:103730000C001344A2681344284A1B0C1380FFF7A3
:10374000DFFF032200210120FFF760F8244A106008
:1037500020B100231A461946FFF77AF80024012504
:10376000234601940095C8221E491F48FFF7AEFA70
:10377000234601940095C8221C491D48FFF7A6FA6C
:103780002346019400954FF400721A491A48FFF736
:103790009DFA0323019400934FF4007223461749C6
:1037A0001748FFF793FA2346019400954FF4C87227
:1037B00014491548FFF78AFA224640210220FFF7F4
:1037C00025F8124B186003B030BD00BFBC53002079
:1037D000685100206C5300203C5300202A520020E6
:1037E000F452002016560008E53600081C56000862
:1037F000F934000821560008D14000082A56000874
:10380000853B0008325600087D350008B85300207B
:1038100070B586B0FDF700FC0023029301230D4C28
:1038200001A902A804940593FDF7A6FC0A4E0B4DCE
:1038300004F17843A3F5FE339A5921460023022070
:103840000434FDF72FFCAC42F2D1FDF7F7FB06B0D4
:1038500070BD00BF00FC01087451002024FC010869
:1038600010B5064B064807491C6803F1784204333B
:10387000A2F5FE328B421450F6D110BD00FC0108B7
:103880007451002024FC0108382230B59DB00DEBA6
:103890000200002100F06BFD1422002101A800F0BD
:1038A00066FD2022002106A800F061FD4FF4803360
:1038B00002240125109317934FF4C0130EA81893F8
:1038C0000E9513951694FDF795FD0F230193002394
:1038D00003934FF48063214601A804930593029457
:1038E000FDF7D6FF4FF4804306A808930694FEF731
:1038F000A1F8024B1D601DB030BD00BF70004242F8
:1039000080B56B4D8EB0FCF753FEFFF7BDFF102264
:10391000002106A800F02BFDAB69002243F0200334
:10392000AB61AB6941F60F4103F020030293029BA8
:10393000AB69604843F01003AB61AB69002403F04E
:1039400010030393039BAB69012643F00403AB61AF
:10395000AB694FF0020803F004030493049BAB69C6
:10396000042743F00803AB61AB6903F00803059338
:10397000059BFDF735FD00224FF400414E48FDF751
:103980002FFD012204214D48FDF72AFD00224FF4AE
:1039900070714B48FDF724FD41F60F4306A94548D9
:1039A0000693079608940996FDF734FC4FF440738C
:1039B00006A94048069307940894FDF72BFC4FF4A2
:1039C000004306A93C48069307960894CDF8248046
:1039D000FDF720FC06A93948069707960894099632
:1039E000FDF718FC4FF4707306A935480693079647
:1039F00008940996FDF70EFC6B69224633436B6110
:103A00006B690521334001930E20019BFDF7BEF841
:103A10000E20FDF7EFF82022214606A800F0A7FCB3
:103A2000284D294B28462B604FF48073AB604FF430
:103A30006023EC60EB616C616C602E61FCF7BEFE94
:103A4000062308934FF4E04306A928460D930696F3
:103A500007960A970C940B940994FCF799FF06A912
:103A60002846CDF81880CDF81C80FCF791FF032381
:103A700006A9284606930793FCF78AFF06A928465D
:103A800006970797FCF784FF4FF496430F48104AB8
:103A9000846080E80C000C23C4604361046184618D
:103AA000C461FEF759F9FFF733FEFEF76DFBFEE741
:103AB00000100240001001400008014000140140C5
:103AC000000C01403C530020002401406C530020B6
:103AD000003801400268164B13B59A4225D1154BA8
:103AE0001A780D2A1CD0144C14492378CA54013377
:103AF000DBB2402B08BF00230A2A23700ED12278A4
:103B00000E490F4800F028FC0E48002301AA0C497A
:103B10000068FEF753FF0023237001E0FF2AFAD06C
:103B2000012204490848FEF7A1F902B010BD00BF08
:103B300000380140BC530020B653002068520020DA
:103B4000A8520020B85300206C53002038B5012142
:103B50000546FCF70DFF094C022120802846FCF7A2
:103B600007FF032160802846FCF702FF0421A080A4
:103B70002846FCF7FDFEE08038BD00BFEC52002077
:103B8000704700002DE9F04796B04022002106A8BA
:103B900000F0EDFB00231D46B24EB34FADF81430DC
:103BA0008DF812308DF81330ADF8163006F1060896
:103BB000AE4C00234FF0FF3206A92068FEF760FFED
:103BC00001288146F5D10024A94B1C709DF81830BE
:103BD000732B00F08A80782B00F0D1806D2BE7D119
:103BE0000DF11303009305AA0DF11203A14906A8D4
:103BF00000F0EAFB9DF82230BDF814208DF8133058
:103C00009DF81230303B8DF812309B4B1B889A4246
:103C100012D19A499A4AC8880B889288029088885B
:103C20000190498897480091974900F0A9FB954970
:103C3000C2B29648FEF742F99DF81320AA42B7D0C7
:103C400012F0010218BF012208219148FDF7C8FBBC
:103C50009DF81320042112F0020218BF01228C48A3
:103C6000FDF7BEFB9DF81320022112F0040218BFDD
:103C700001228748FDF7B4FB9DF81320012112F0C3
:103C8000080218BF01228248FDF7AAFB9DF8132005
:103C90004FF4805112F0100218BF01227C48FDF74A
:103CA0009FFB9DF813204FF4006112F0200218BF13
:103CB00001227748FDF794FB9DF813204FF48061B3
:103CC00012F0400218BF01227148FDF789FB9DF9EF
:103CD00013304FF40041002BB4BF012200223846BC
:103CE000FDF77EFB9DF8135062E79DF81930782BA5
:103CF0000ED105AA674906A800F066FB5E4BBDF829
:103D000014201B889A427FF453AF634B1C704FE71B
:103D10002C2B7FF44DAF614BCDF808809A1E019398
:103D20000092043B05AA5E4906A800F04DFB524BE9
:103D3000BDF814201B889A427FF43AAF4F4930886F
:103D40000A88584B824294BF4A46002248881A701B
:103D500072889042B288888898BF4C4690428CBF47
:103D600000220122C9889A70F2885C7091428CBF4F
:103D700000220122DA700122474B1A7018E79DF8E1
:103D800019303F2B12D1484A484906A800F01CFBC5
:103D9000394B3B4A1B88928845493A4800F0F0FA73
:103DA0003849C2B23948FEF789F801E7632B7FF43E
:103DB000FFAE0DF1160305AA3E4906A800F004FB6C
:103DC000DFF8B4A0BDF81610BAF80030BDF8142022
:103DD00000912C48384900F0D3FA4FF40053C2B296
:103DE00028492A48FDF7E6FFBDF81420BAF800304C
:103DF0009A427FF4DDAEBDF81630DFF884A08AF871
:103E00000030FFF705FDBAF804202C491D4800F0EA
:103E1000B7FA1C49C2B21D48FEF750F86420FFF7FC
:103E200073F9224604212648FDF7DAFA3220FFF71B
:103E30006BF9BDF816202349124800F0A1FA114988
:103E4000C2B21248FEF73AF83220FFF75DF94A464F
:103E500004211B48FDF7C4FA224680211A48FDF7C9
:103E6000BFFAA5E62052002000080140B853002008
:103E700031520020385600082A5200209851002064
:103E800074510020A0510020465600086C530020B9
:103E9000001001405E5600082852002024520020E5
:103EA000675600082D520020785100207F560008E8
:103EB0008756000895560008A2560008B556000817
:103EC00000140140C2560008000C0140114B07B518
:103ED0009A690F2142F001029A619A696FF001001C
:103EE00002F001020092009ADA6942F08052DA612F
:103EF000DB69002203F080530193019BFCF746FE2F
:103F0000054A536823F0E06343F00073536003B045
:103F10005DF804FB001002400000014010B50446AB
:103F200086B01022002102A800F021FA2268144B6A
:103F30009A4223D103F56C439A6902A942F40072B4
:103F40009A619A690F4802F400720092009A9A6985
:103F500042F004029A619B6903F004030193019B00
:103F60003E23029303230393FDF754F9122000220A
:103F70000521FCF70BFE1220FCF73CFE06B010BD3D
:103F80000024014000080140F0B51027064687B024
:103F90003A46002102A800F0EAF93268254B9A421D
:103FA00045D103F558439A6902A942F480429A61C7
:103FB0009A69214802F480420092009A9A69002589
:103FC00042F004029A619B691C4C03F004030193C4
:103FD000019B4FF400730293022303930323059381
:103FE000FDF718F94FF48063134802A90293039573
:103FF0000495FDF70FF9124B204684E888008023D2
:10400000E3604FF48053A56025616561A561E361BC
:10401000FCF712FE08B1FFF7B3FD25203463002240
:1040200005216662FCF7B2FD2520FCF7E3FD07B031
:10403000F0BD00BF0038014000080140F8520020E8
:10404000440002407047FEE7FEE7FEE7FEE77047E8
:1040500008B5FCF7BFFABDE80840FEF79AB80000C3
:104060000148FCF7D5BE00BFF85200200148FCF71C
:10407000D5BA00BF3C5300200148FDF7DDBF00BFAB
:104080006C530020F0B58BB06C4606460F4D0F46C2
:104090000FCD0FC40FCD0FC495E8030084E80300D3
:1040A00006F1120333F8022D9E425A80FAD1002302
:1040B0001846378036F813205DF8231001330A2B99
:1040C00001FB0200F6D1000C0BB0F0BDD455000886
:1040D00080B594B014220021684600F048F91422FB
:1040E000012300210DEB0200ADF8003000F03FF994
:1040F0000223142200210AA8ADF8143000F037F989
:104100000323142200210FA8ADF8283000F02FF966
:1041100004234F4F4F4CDFF85C81ADF83C303B78C7
:10412000322B60D9002208212046FDF759F90022E0
:1041300004212046FDF754F9002202212046FDF714
:104140004FF9002201212046FDF74AF900224FF4E1
:1041500080512046FDF744F900224FF400612046CB
:10416000FDF73EF900224FF480612046FDF738F953
:1041700000224FF400414046FDF732F900233B7026
:10418000354B364D1A8836482A805A88354E6A8013
:104190009A88DB88AA80EB80FCF790FB2988684628
:1041A000FFF770FF6988308005A8FFF76BFFA988CB
:1041B00070800AA8FFF766FFE988B0800FA8FFF7B4
:1041C00061FF294BF0801B78284D012B0DD12B70FE
:1041D000002327481A4619460068FEF739FB3220AB
:1041E000FEF792FF9BE70133C9E72E78012EF6D147
:1041F000002208212046FDF7F3F800220421204682
:10420000FDF7EEF8002202212046FDF7E9F8002232
:1042100031462046FDF7E4F800224FF48051204655
:10422000FDF7DEF800224FF400612046FDF7D8F8D4
:1042300000224FF480612046FDF7D2F800224FF4AF
:1042400000414046FDF7CCF800232B70C7E700BFC4
:104250003152002000100140EC520020AE530020EB
:104260003C53002098510020285200203252002058
:10427000F45200200008014008B50A4B02461968B4
:1042800009B9094919606946186802448A4206D981
:1042900000F05CF80C2303604FF0FF3008BD1A609B
:1042A00008BD00BF34520020C4530020124B1A68CE
:1042B00042F001021A605968104A0A405A601A68AE
:1042C00022F0847222F480321A601A6822F480226A
:1042D0001A605A6822F4FE025A601A6822F0A0524C
:1042E0001A604FF47F029A600022DA624FF0006297
:1042F000034B9A60704700BF001002400000FFF0BF
:1043000000ED00E0002103E00A4B5B58435004310C
:1043100009480A4B42189A42F6D3094A02E00023A0
:1043200042F8043B074B9A42F9D3FFF7BFFFFFF770
:10433000E7FA7047B058000800000020E0010020B4
:10434000E0010020C4530020FEE70000014B186884
:10435000704700BF1000002010B5431E0A44914270
:1043600000D110BD11F8014B03F8014FF7E70346E8
:104370000244934200D1704703F8011BF9E70000A3
:104380000EB44FF4027100B59CB0ADF814106FF08C
:104390000041049107914FF6FF711DAB029006900A
:1043A000084853F8042BADF81610006802A90193D1
:1043B00000F092F80022029B1A701CB05DF804EB2A
:1043C00003B07047100000200EB44FF4017230B5F6
:1043D0009CB01FAC54F8045BADF81420029006901A
:1043E000FBF726FF0B4B03900B9300230F931493C3
:1043F0004FF6FF7307900848ADF816302A4623465B
:1044000002A90068019400F0B5F91CB0BDE8304085
:1044100003B070471D4400081000002000207047C2
:104420002DE9F0478E6882469E420C46914698469A
:1044300035D88A8912F4906F31D002232568096932
:104440006F1A656905EB450595FBF3F508F1010366
:104450003B449D4238BF1D46530531D5294600F0E7
:10446000F1FF064650B90C23CAF80030A3894FF07B
:10447000FF3043F04003A381BDE8F0873A4621694D
:10448000FFF76AFFA38923F4906343F08003A381BD
:1044900026613E44266046466561ED1BA5604645A3
:1044A00028BF464649463246206800F065FFA368AB
:1044B00000209B1BA36023681E442660BDE8F08794
:1044C0002A4601F01DF806460028E1D12169504630
:1044D00000F06CFFC7E700002DE9F04F9DB003939B
:1044E0008B8980461C060D4616460FD50B696BB9A5
:1044F000402100F0A7FF2860286128B90C23C8F8E4
:1045000000304FF0FF30C4E040236B61002309937B
:1045100020238DF8293030234FF0010B8DF82A30FD
:1045200037463C4614F8013B002B3CD1B7EB060A5A
:104530000BD05346324629464046FFF771FF013003
:1045400000F0A280099B534409933B78002B00F0B4
:104550009B8000234FF0FF3204930793059206934C
:104560008DF853301A9305222178504800F0F6FE5A
:10457000671C049BD8B9D90644BF20228DF853206C
:104580001A0744BF2B228DF8532022782A2A16D0EE
:1045900000210A20079A27463B780134303B092B3B
:1045A00050D9C9B111E0252BC0D02746B9E73F4A01
:1045B0003C46801A0BFA00F018430490D3E7039AA4
:1045C000111D12680391002A01DB079204E0524298
:1045D00043F00203079204933B782E2B0DD17B7896
:1045E000791C2A2B32D1039B02371A1D1B680392B8
:1045F000002BB8BF4FF0FF3305932D4C03223978C1
:10460000204600F0ABFE38B14023001B03FA00F057
:10461000049B0137034304933978062225487E1C06
:104620008DF8281000F09AFE002835D0224BFBB9F7
:10463000039B073323F0070308330393099B4B4481
:1046400009936DE700FB02320121A4E700230A244D
:10465000184605930F463A780131303A092A03D9B2
:10466000002BCAD00590C8E704FB00200123F1E726
:1046700003AB00932A46114B04A94046AFF30080D8
:10468000B0F1FF3F8146D9D1AB895B063FF539AF29
:1046900009981DB0BDE8F08F03AB00932A46074B85
:1046A00004A9404600F032FAEAE700BFE4560008E9
:1046B000EA560008EE5600080000000021440008F9
:1046C00038B54B1C144603D14FF0FF35284638BD92
:1046D0009389CDB223F020039381536B52688BB141
:1046E000A36B9A4208DA23685A1E226003F8015C21
:1046F000636801336360E9E7214600F0D3FD0028D9
:10470000F1D0E1E72169236851B1994208D213F849
:10471000011C8D4204D1013B013223606260D5E768
:10472000E36304F1440363630323A3632346226426
:1047300003F8465F23600123DCE710B50C46496BA4
:1047400069B104F14403994201D000F02FFE00202A
:10475000236C6063636013B1E36B236010BD236956
:104760004FF0FF30236000236360A38943F02003F0
:10477000A38110BD2DE9F04FADF5257D01930023F8
:1047800006460C4692460A27469347939F4B0DF1E7
:104790000C08A2939E4BDFF87C92CDF82081A39366
:1047A0009AF80030002B00F02F8100F0B7FD9AF846
:1047B00000B05844437813F0080343D1BBF1250FF0
:1047C0000AF1010540F09980459343939AF801302E
:1047D0002A2B03D110230AF1020543932978AA4614
:1047E000A1F13002092A05F1010541D903228948C6
:1047F00000F0B4FD38B1A0EB09030120AA469840AF
:10480000439B184343909AF800300AF10105672B47
:104810004AD8652B80F0B780472B2FD8452B80F0E6
:10482000B280002B00F08280252B66D003234497B2
:10483000499345E04799013301314791616823600D
:10484000013961606368002B0BDD00F067FD2368B0
:104850001978084441780D07ECD40AF10105AA46FD
:104860009EE7A39B2146304698470028EDD0F4E709
:10487000459B07FB0313303B4593AFE75B2B61D0B0
:104880000CD8582BD2D1439A42F400724392102292
:1048900044926F2BB4BF0323042310E0632B5CD03E
:1048A000642BC3D14497F4E7702B42D01DD86E2BF4
:1048B00059D043D8692BB9D100234493032349939A
:1048C0006368002B61DD439B59066FD5499B022B22
:1048D0007CDC01AB224643A9304600F037FA0128C0
:1048E00000F092800228BAD11DE0752BDAD0782B27
:1048F000C9D0732B9AD10223E1E76368002B0CDD4A
:1049000023681A7893457FD1013362682360479BFF
:10491000013A013362604793A1E7A39B21463046E9
:1049200098470028ECD04698002863D14FF0FF301C
:1049300066E0439A42F020024392A4E7082344939E
:104940000423BCE72946404600F05AFB439B05463A
:1049500043F0400343930123B1E7439B43F04003FB
:1049600043930023ABE7439AD0063FF578AF12F0AC
:10497000010F019A479B02F104010191126814BFD3
:10498000138013606BE7052399E7A39B214630460C
:104990009847002897D0C6E7479A01324792626845
:1049A000013A002A62600ADD0133236000F0B6FCA0
:1049B00023681A78104442781207EDD486E7A39B47
:1049C0002146304698470028F0D0ACE7042B06DC9F
:1049D00001AB224643A9304600F01CFA7FE70E4B9C
:1049E000002B3FF43CAF01AB224643A93046AFF366
:1049F000008074E7A38913F0400F18BF4FF0FF3019
:104A00000DF5257DBDE8F08F4698F9E7C146000811
:104A10003B470008EA560008000000002DE9F04777
:104A200091461F468A680B6906469342B8BF1346F3
:104A3000C9F8003091F843200C46DDF8208012B10F
:104A40000133C9F800302368990642BFD9F8003015
:104A50000233C9F80030256815F0060507D104F1C6
:104A6000190AE368D9F800209B1A9D422ADB94F8C2
:104A700043302268003318BF012392062FD404F17B
:104A8000430239463046C047013022D02368E568EA
:104A900003F00603042B18BF0025D9F800204FF0BF
:104AA000000908BFAD1AA368226908BF25EAE575A9
:104AB0009342C4BF9B1AED181A344D451BD10020F8
:104AC000BDE8F0870123524639463046C0470130E1
:104AD00003D14FF0FF30BDE8F0870135C1E730204A
:104AE000E11881F843005A1C94F84510224402331F
:104AF00082F84310C3E70123224639463046C047B7
:104B00000130E6D009F10109D7E700002DE9F043B3
:104B100017460A7E85B06E2A984606460C460C9BC0
:104B200001F1430E00F0BC801AD8632A2ED00AD8B7
:104B3000002A00F0C880582A00F08A8004F142055B
:104B400084F842202AE0642A01D0692AF6D121683B
:104B50001A6811F0800F23D0111D1960136827E027
:104B6000732A00F0B48008D86F2A2AD0702AE5D1C1
:104B70000A6842F020020A6003E0752A21D0782AF0
:104B8000DCD178226F4984F8452064E01A6801F18D
:104B90004205111D1960136884F842300123A3E017
:104BA00011F0400F02F104011960D7D0B2F90030C2
:104BB000002B03DA2D225B4284F8432062490A224B
:104BC00017E02068196810F0800F03D0081D1860E6
:104BD0000B6806E010F0400F01F104001860F7D0F8
:104BE0000B886F2A14BF0A2208225749002084F834
:104BF00043006568002DA560C0F29C80206820F00D
:104C000004002060002B3FD1002D40F095807546B8
:104C1000082A0BD12368DA0708D5236962689A420B
:104C2000DEBF302305F8013C05F1FF35AEEB05038F
:104C30002361CDF800803B4603AA21463046FFF7AA
:104C4000EDFE013055D14FF0FF3005B0BDE8F083E7
:104C500081F845203C492268186812F0800F00F165
:104C600004051D6001D0036802E05506FBD50388EA
:104C7000D00744BF42F0200222601BB9226822F014
:104C8000200222601022B1E77546B3FBF2F002FB6E
:104C90001033CB5C05F8013D03460028F5D1B7E79A
:104CA00008681A6810F0800F496904D0101D186058
:104CB0001368196007E010F0400F02F1040018605B
:104CC0001368F6D01980002375462361B1E71A688E
:104CD000111D1960156800216268284600F03EFB2E
:104CE00008B1401B606063682361002384F843308F
:104CF0009FE723692A4639463046C0470130A2D093
:104D000023689B0707D5002504F11909E368039A76
:104D10009B1A9D4205DBE068039B9842B8BF18468A
:104D200093E701234A4639463046C04701308AD0CE
:104D30000135EBE7002BA7D10B7804F1420584F88D
:104D4000423065E706570008F55600082DE9F041A6
:104D500015468A6880460C4632B98A69002A0CBF1B
:104D600001224FF0FF328A6000262268D1065FBF21
:104D70001A68111D19601768A369DBB1012B07D1EF
:104D80002B6862691B78D35CA3B9002E31D106E091
:104D9000022B07D0002E2CD1A369012B29D1012091
:104DA000BDE8F08100F0BAFA2B681B78184443780C
:104DB0001B07EFD423680136DA065EBF2B681B7829
:104DC0003B702A686B6802F101022A60A26803F155
:104DD000FF3302F1FF326B6058BF0137A26042B16E
:104DE000002BC9DCD4F8803129464046984700287A
:104DF000C2D0236813F0100305D1E2680132E260EB
:104E0000A26902B13B70236900201E442661BDE8FF
:104E1000F08100002DE9F04F0C469A46744B87B0A4
:104E20008346164693E8070003ABA76883E80700AC
:104E3000704BA169704A04F11C09032918BF1A4676
:104E40007B1EB3F5AE7F84BF40F25D13A360236881
:104E500088BF6FF4AE7543F45063236098BF00279A
:104E60004B464FF00008009288BF7F1931680193CC
:104E700003AB53F828000222097800F06FFA019B77
:104E800028B3B8F1010F56D162682AB908226260CE
:104E9000226842F400722260226822F4A06222603A
:104EA000A268511EA16092B132685D1C511C316034
:104EB00012781A707368013B002B736006DCD4F81B
:104EC0008031314658469847002877D12B4608F163
:104ED0000108B8F1030FC9D162680AB90A226260F9
:104EE000626846496069891A019300F089F8019B5C
:104EF0004FF000081D46A368002B39D03168606967
:104F00000A78805C002833D0302A226821D110052D
:104F10001FD508F1010817B10133013FA360736881
:104F2000013B002B73601CDD336801333360A368E1
:104F3000013BA360DFE7B8F1020FB1D1226802F4B0
:104F4000C061B1F5007FC2D1102142F4807261606E
:104F5000A5E722F4106222600B78013505F8013CC8
:104F6000DDE7D4F880313146584698470028DED036
:104F70002368D9050CD54D4508D915F8011C6F1EBD
:104F8000D4F87C313246584698473D464D452CD0A2
:104F9000226812F010021ED12A70636849465846F2
:104FA000009EB0472268DAF8003012F0200F08D0D7
:104FB0001A1DCAF800201B68186009E04FF00008AD
:104FC000D6E7D207F4D51A1DCAF800201B6818804E
:104FD000E3680133E3600020A5EB0905A8442569D7
:104FE0004544256107B0BDE8F08F0120FAE700BF16
:104FF000FC5500088152000861510008275700083D
:1050000070B50B78441E5E2B13BF4A1C8A1C4B786C
:10501000002108BF012100F1FF0504F8011FA5428E
:10502000FBD113B9013A104670BD81F0010411465D
:10503000C4540D784A1C2D2D06D05D2DF3D00DB92A
:105040000A46F0E72B46F2E74E785D2EFAD0B342DF
:10505000F8DC023101339E42C454FBDCE9E72DE960
:10506000F84F8046894692461F468B465D460A9811
:1050700015F8014B00F04FF92044467816F0080669
:105080000BD12D2C0BD101262C780BF1020567B129
:10509000102F14D1302C0AD011E0AB46E6E72B2CB0
:1050A00004BF2C780BF10205F1E7302C27D12B78C7
:1050B00003F0DF03582B4BD110276C780235002EFC
:1050C0000CBF6FF000414FF000410022B1FBF7FE32
:1050D000104607FB1E1CA4F13003092B11D81C46F7
:1050E000A7421DDD531C07D0864516D301D1A44528
:1050F00013DB012200FB074015F8014BEBE70A2701
:10510000DDE7A4F14103192B01D8373CE8E7A4F10E
:105110006103192B04D8573CE2E74FF0FF32EBE76D
:10512000531C08D122230846C8F80030BAF1000FFA
:1051300007D1BDE8F88F06B14042BAF1000F0CD09C
:1051400022B1013DCAF80050BDE8F88F4D46F9E79D
:105150003024002FB3D10827B1E7BDE8F88F000055
:1051600037B5064C064D2468246A002C08BF2C462F
:105170000094FFF774FF03B030BD00BF10000020A3
:10518000740000202DE9F0478046894692461E466D
:105190000F463D46089815F8014B00F0BCF8204436
:1051A000437813F008030AD12D2C0AD101232C785F
:1051B000BD1C5EB1102E13D1302C09D010E02F464B
:1051C000E7E72B2C04BF2C78BD1CF2E7302C25D14F
:1051D0002A7802F0DF02582A4AD110266C7802356C
:1051E0004FF0FF31B1FBF6F1002706FB01FE384618
:1051F0006FEA0E0EA4F13002092A11D81446A64215
:105200001DDD002F18DB814216D301D1A64513DB2B
:10521000012700FB064015F8014BEBE70A26DFE704
:10522000A4F14102192A01D8373CE8E7A4F1610250
:10523000192A04D8573CE2E74FF0FF37EBE7002F7D
:1052400009DA22234FF0FF30C8F80030BAF1000F1E
:1052500007D1BDE8F08703B14042BAF1000F0CD08E
:1052600027B1013DCAF80050BDE8F0874D46F9E787
:105270003024002EB4D10826B2E7BDE8F087000044
:1052800037B5064C064D2468246A002C08BF2C460E
:105290000094FFF777FF03B030BD00BF100000207F
:1052A000740000202DE9F0410C46496B04F14403E1
:1052B00099421CD14FF4806100F0C4F818B94FF046
:1052C000FF30BDE8F0814FF48063A36394F846306B
:1052D000606380F8FF3394F8453000F2FD3043708E
:1052E00094F84430037020600020BDE8F081A66B84
:1052F00077003A4600F004F905460028DFD000EBBD
:105300000608014632464046FFF726F8C4F80080FA
:105310006563A763E8E7D0F8EC007047044B054AE3
:105320001B681B6A002B08BF1346D3F8EC007047BC
:10533000100000207400002082B001B901A942B120
:105340004BB113780B601278101C18BF012002B00B
:1053500070471046FBE76FF00100F8E710B5C9B2DF
:1053600002449042034601D1002010BD1C78013058
:105370008C42F6D1184610BD884210B501EB0203ED
:1053800003D8421E99420CD110BD9842F9D281181F
:10539000D21AD34200D110BD13F8014D01F8014DCE
:1053A000F7E711F8014B02F8014FEBE738B5054676
:1053B000002943D051F8043C0C1F002BB8BFE4185F
:1053C00000F0E1F81E4A1368104633B963601460B8
:1053D0002846BDE8384000F0D7B8A3420BD9216871
:1053E0006218934201BF1A685B68521822606360BA
:1053F0000460EDE713465A680AB1A242FAD9196867
:105400005818A0420BD120680144581882421960F4
:10541000DED110685268014419605A60D8E702D999
:105420000C232B60D4E7206821188A4201BF116841
:1054300052680918216062605C60C9E738BD00BF2E
:105440003852002070B5CD1C25F0030508350C2D11
:1054500038BF0C25002D064601DBA94203D90C23D9
:105460003360002070BD00F08EF8234A1468214696
:1054700091B9224C23681BB9304600F067F82060D0
:105480002946304600F062F8431C26D10C233046F2
:10549000336000F079F8E4E70B685B1B1AD40B2B40
:1054A0000FD90B60CC18CD50304600F06DF804F1E8
:1054B0000B00231D20F00700C31A1BD05A42E250F4
:1054C00070BD8C420BBF63684B681360636018BF8C
:1054D0000C46E9E70C464968CAE7C41C24F00304FB
:1054E000A04205D0211A304600F030F80130CDD06E
:1054F0002560D9E770BD00BF385200203C52002023
:10550000F8B5074614460E4621B91146BDE8F840E5
:10551000FFF798BF22B9FFF749FF25462846F8BD97
:1055200000F033F884420FD921463846FFF78AFF4E
:1055300005460028F2D031462246FEF70DFF3146DF
:105540003846FFF733FFE9E73546E7E738B500238C
:10555000054C054608462360FEF78EFE431C02D12B
:10556000236803B12B6038BDC053002049B1FF2A26
:105570008BBF8A230A700360012088BF4FF0FF3081
:105580007047084670477047704751F8040C002870
:10559000A0F10400BCBF0B58C0187047F8B500BF9D
:1055A000F8BC08BC9E467047F8B500BFF8BC08BC04
:0455B0009E4670475C
:1055B400000004050607080900000000000D0102B0
:1055C400030405060708090A0B0C0D0E0F10000052
:1055D400A9FFFFFFDBF7FFFF36090000EE460000DE
:1055E400F66E0000EE46000036090000DBF7FFFF10
:1055F400A9FFFFFFBC010000295700082C57000831
:105604002F57000849444C450041542B4330303156
:105614000D00426C796E6B005363616E005341441C
:1056240043446174610050726F63436D6400416E62
:1056340054736B006D2C2568752C25632C25632C05
:105644000A006D2C2568752C2568752C2568752C29
:105654002568752C2568752C0A0073782C256875C7
:105664002C0A00732C2568752C2568752C25687503
:105674002C2568752C2568752C0A00783F256875DB
:105684002C0A00782C253035642C253035642C0AFE
:105694000078632C2568752C2568752C0A006964CC
:1056A4002C253035642C253035642C253033640AA0
:1056B4000078632C253035642C6F6B2C0A00415420
:1056C4002B43253033640D0000000000000000006F
:1056D4000102030406070809000000000102030494
:1056E400232D302B2000686C4C00656667454647C7
:1056F400003031323334353637383941424344454A
:1057040046003031323334353637383961626364B8
:10571400656600412D46612D6638393031323334A7
:105724003536375D002B2D003030007858000000EE
:105734000000000000000000000000000000000065
:105744000000000000000000000000000000000055
:105754000000000000000000000000000000000045
:105764000000000000000000000000000000000035
:105774000000000000000000000000000000000025
:105784000000000000000000000000000000000015
:105794004300504F534958002E0000202020202061
:1057A40020202020282828282820202020202020CD
:1057B40020202020202020202020208810101010BD
:1057C4001010101010101010101010040404040411
:1057D400040404040410101010101010414141413D
:1057E4004141010101010101010101010101010125
:1057F4000101010101011010101010104242424237
:1058040042420202020202020202020202020202F4
:105814000202020202021010101020000000000018
:105824000000000000000000000000000000000074
:105834000000000000000000000000000000000064
:105844000000000000000000000000000000000054
:105854000000000000000000000000000000000044
:105864000000000000000000000000000000000034
:105874000000000000000000000000000000000024
:105884000000000000000000000000000000000014
:0C58940000000000000000000000000008
:0858A000E8A9FF7F01000000F0
:0458A80015020008DD
:0458AC00F1010008FE
:1058B0000100000010000000AAAAAAAA00A24A043F
:1058C000140000200000000054570008745700081E
:1058D0003457000800000000000000000000000035
:1058E00000000000000000000000000000000000B8
:1058F00000000000000000000000000000000000A8
:105900000000000000000000000000000000000097
:105910000000000000000000000000000000000087
:105920000000000043000000000000000000000034
:105930000000000000000000000000000000000067
:105940000000000043000000000000000000000014
:105950000000000000000000000000000000000047
:1059600000000000430000000000000000000000F4
:105970000000000000000000000000000000000027
:1059800000000000430000000000000000000000D4
:105990000000000000000000000000000000000007
:1059A00000000000430000000000000000000000B4
:1059B00000000000000000000000000000000000E7
:1059C0000000000043000000000000000000000094
:1059D00000000000000000000000000000000000C7
:1059E0000000000043000000000000000000000074
:1059F00000000000000000000000000000000000A7
:105A0000000000006D550008395300080000000038
:105A10009E5700089C570008455600084556000848
:105A200045560008455600084556000845560008EA
:105A3000455600084556000845560008FFFFFFFF81
:105A4000FFFFFFFFFFFFFFFFFFFF000001004153CB
:105A50004349490000000000000000000000000071
:105A600000000000000000000000000000004153A2
:105A70004349490000000000000000000000000051
:105A80000000000000000000000000000000000016
:0400000508004305A7
:00000001FF
