:020000040800F2
:100000000000012035440008354100083741000850
:10001000394100083B4100083D4100080000000054
:10002000000000000000000000000000C1220008E5
:100030003F41000800000000512300084141000832
:10004000794400087944000879440008794400089C
:10005000794400087944000879440008794400088C
:10006000794400087944000879440008794400087C
:100070007944000879440008514100087944000897
:1000800079440008794400085D410008794400087B
:10009000794400087944000879440008794400084C
:1000A000794400087944000879440008794400083C
:1000B000794400087944000879440008794400082C
:1000C000794400087944000879440008794400081C
:1000D000794400086941000879440008794400081F
:1000E00079440008794400087944000800000000C1
:1000F0000000000000000000000000000000000000
:100100000000000000000000794400087944000865
:1001100079440008794400087944000879440008CB
:1001200079440008794400087944000879440008BB
:100130007944000800000000000000007944000835
:10014000794400087944000879440008794400089B
:10015000000000000000000000000000000000009F
:10016000000000000000000000000000000000008F
:10017000000000000000000000000000000000007F
:10018000000000000000000000000000000000006F
:10019000000000000000000000000000000000005F
:1001A000000000000000000000000000000000004F
:1001B000000000000000000000000000000000003F
:1001C000000000000000000000000000000000002F
:1001D000000000000000000000000000000000001F
:0401E0005FF8E0F1F3
:1001F00010B5054C237833B9044B13B10448AFF361
:1002000000800123237010BD2802002000000000A0
:10021000CC56000808B5034B1BB103490348AFF3A4
:10022000008008BD000000002C020020CC56000811
:10023000034613F8012B002AFBD1181A0138704726
:10024000D0400B1CD1409C46203AD3401843524228
:10025000634693401843704753B94AB9002908BF11
:1002600000281CBF4FF0FF314FF0FF3000F07AB98B
:10027000ADF1080C6DE904CE00F006F8DDF804E0FD
:10028000DDE9022304B070472DE9F0478C460E46A5
:100290000446089D002B50D18A4217466CD9B2FA09
:1002A00082FEBEF1000F0BD0CEF1200C01FA0EF64B
:1002B00020FA0CFC02FA0EF74CEA060C00FA0EF4D7
:1002C0003A0CBCFBF2F9BBB202FB19CC09FB03FAF6
:1002D0004FEA144848EA0C46B2450AD9F61909F122
:1002E000FF3180F02581B24540F22281A9F1020957
:1002F0003E44A6EB0A06B6FBF2F002FB106600FBDA
:1003000003F3A4B244EA0644A34209D9E41900F174
:10031000FF3280F00B81A34240F2088102383C4456
:100320000021E41A40EA0940002D62D0002324FA9B
:100330000EF42C606B60BDE8F0878B4207D9002D6E
:1003400055D0002185E841000846BDE8F087B3FAA2
:1003500083F1002940F08F80B34202D3824200F241
:10036000FC80841A66EB03060120B446002D40D0C1
:1003700085E81010BDE8F08712B90127B7FBF2F746
:10038000B7FA87FEBEF1000F35D10121F61B4FEA07
:10039000174C1FFA87F8B6FBFCF20CFB126608FB41
:1003A00002F0230C43EA0646B04207D9F61902F1DF
:1003B000FF3302D2B04200F2D2801A46361AB6FBA0
:1003C000FCF00CFB106608FB00F8A3B243EA0644FD
:1003D000A04507D9E41900F1FF3302D2A04500F28D
:1003E000B9801846A4EB080440EA02409CE729467D
:1003F0002846BDE8F08707FA0EF7CEF1200326FA6B
:1004000003F24FEA174CB2FBFCF11FFA87F80CFB22
:10041000112206FA0EF620FA03F301FB08F9334322
:100420001E0C46EA0246B14500FA0EF409D9F61947
:1004300001F1FF3280F08C80B14540F289800239B1
:100440003E44A6EB0906B6FBFCF00CFB106200FB79
:1004500008F99EB246EA0246B14507D9F61900F1FD
:10046000FF3371D2B1456FD902383E44A6EB09067D
:1004700040EA01418FE7C1F1200722FA07F88B40DB
:1004800048EA030326FA07F44FEA134EB4FBFEF9D9
:100490001FFA83FC0EFB19448E4020FA07F809FB73
:1004A0000CFA48EA06084FEA184646EA0444A24510
:1004B00002FA01F200FA01F608D9E41809F1FF3056
:1004C00044D2A24542D9A9F102091C44A4EB0A0472
:1004D000B4FBFEF00EFB104400FB0CFC1FFA88F886
:1004E00048EA0444A44507D9E41800F1FF3E29D2A4
:1004F000A44527D902381C4440EA0940A0FB0289E0
:10050000A4EB0C0CCC45C246CE4615D312D055B147
:10051000B6EB0A036CEB0E0606FA07F7CB401F4357
:10052000CE402F606E600021BDE8F0871046F7E6F0
:100530008946DEE64645EAD2B8EB020A69EB030ECD
:100540000138E4E77046D7E718468FE78146BDE7F4
:10055000114676E702383C4444E7084606E7023A8B
:100560003E442BE7704700BF38B50E4B0546187860
:100570004FF47A73B3FBF0F30B4A1068B0FBF3F05F
:1005800000F056FB044658B90F2D09D802462946FB
:100590004FF0FF3000F00CFB044B20461D6038BDCF
:1005A000012038BD0000002054000020040000207D
:1005B000074A08B51368032043F01003136000F0E6
:1005C000E5FA0F20FFF7D0FF03F0F8FC002008BD8C
:1005D00000200240034A044B11681B780B4413604F
:1005E000704700BF8852002000000020014B1868AF
:1005F000704700BF8852002038B50446FFF7F6FF69
:100600000546631C1EBF044B1B78E418FFF7EEFF82
:10061000401B8442FAD838BD00000020044B1B6800
:100620000360044B1B684360034B1B688360704787
:10063000E8F7FF1FECF7FF1FF0F7FF1F7047704749
:10064000036810B55A680446900627D51A689107C2
:1006500024D5A26AD2065EBFA26A42F40072A262E8
:100660009A6802F46022B2F5602F10D1E26872B984
:100670005A6822F020025A60A36A23F48073A362AE
:10068000A36ADB045EBFA36A43F00103A3622046B2
:10069000FFF7D4FF6FF0120223681A6023685A68CC
:1006A000100630D51A6851072DD5A26AD2065EBF52
:1006B000A26A42F40052A2629A6802F4E042B2F5E1
:1006C000E04F0AD05A68500516D49A6802F46022A6
:1006D000B2F5602F10D1E26872B95A6822F0800238
:1006E0005A60A36A23F48053A362A36AD9055EBF4C
:1006F000A36A43F00103A362204603F09BFA6FF064
:100700000C0223681A6023685A6852060DD51B68CC
:10071000DB070AD5A36A204643F48033A362FFF7C0
:100720008EFF6FF0010223681A6010BD002373B5BD
:100730000193036804469A68D20702D5002002B0EC
:1007400070BD9A6842F001029A60124B124A1B680F
:10075000B3FBF2F30193019BC3B9FFF747FF0646D2
:1007600023689D6815F00105E8D1FFF73FFF801B66
:100770000228F5D9A36A84F8245043F01003A36239
:10078000E36A012043F00103E362D8E7019B013BE8
:10079000E0E700BF5400002040420F0038B5036876
:1007A00004469A68D20701D4002038BD9A6822F026
:1007B00001029A60FFF71AFF054623689B68DB0772
:1007C000F2D5FFF713FF401B0228F6D9A36A0120D8
:1007D00043F01003A362E36A43F00103E36238BD10
:1007E00070B50446002871D0836A23B9C36280F8CB
:1007F000243003F00BFC2046FFF7D0FFA36A13F070
:10080000100FA36A64D1002862D1E16923F48853F0
:10081000626823F0020343F002030A43A168A36263
:10082000E368B1F5807F42EA430238D0012914BF62
:1008300006464FF480766569012D07D1002B30D133
:10084000A369013B46EA433545F400662368B1F5E8
:10085000807F5D6825F4694545EA06055D609E6810
:100860001D4D05EA060545EA02059D6001D00129F6
:1008700020D1216901390905DD6A25F47005294374
:10088000D9629968154B0B409A4215D10023E36257
:10089000A36A23F0030343F00103A36270BD0E4675
:1008A000C9E7A36A43F02003A362E36A43F00103AC
:1008B000E362CBE70021DFE7A36A23F0120343F0F2
:1008C0001003A362E36A43F00103E362012070BDF9
:1008D00043F01003A362F9E7FDF7E1FFFE0E1FFFEF
:1008E00090F8243010B5012B04464ED0012380F837
:1008F0002430FFF71BFF002843D1A36A244A23F4C6
:10090000405323F0010343F48053A36223689342CE
:1009100005D1A2F58062526812F4702F29D1A26A23
:1009200022F48012A262A26A12F4807208BFE2620C
:10093000002284F824206FF004021A605A6842F002
:1009400080025A605A68520520D49A6802F4E04244
:10095000B2F5E04F11D10E4A934205D1A2F5806263
:10096000526812F4702F08D19A6842F402129A6009
:1009700010BDA26A42F48012D4E79A6842F40042A1
:10098000F5E7002384F8243010BD022010BD00BF1D
:10099000002801400329036807D0042903D0022955
:1009A00005D1186C7047986C7047586C7047D86BBD
:1009B00070470000F7B50246002092F824300190FD
:1009C000012B00F0D8800127D2F808E082F82470CB
:1009D0004E6813680D68BEF1000F7BD1BE4273D123
:1009E00070469C6BA40DA40544EAC5349C639C68C6
:1009F000E40707D49C68CF6924F4E04424F00104A0
:100A00003C439C608C69012C0DD1CF69B7F5E04F58
:100A100017BF906A5F6840F02000906212BF2046C6
:100A200047F480675F604F69012F05D1002C74D1B6
:100A30005C6844F480545C60092D4FEA4504D1F8A9
:100A400008E070D94FF0070C2C44DF681E3C0CFA0C
:100A500004FC27EA0C070EFA04F43C43DC60A5F121
:100A60001004012C98BF9F68DFF81CE19CBF47F47D
:100A700000079F60022ECF6862D0032E66D0012E41
:100A80006AD1596901EA0E0139435961012C16D81E
:100A90003A498B4269D19968090210D49968102D9E
:100AA00041F4000199600AD1354B36491B68B3FB0C
:100AB000F1F10A234B430193019B002B52D10023F8
:100AC00082F8243003B0F0BD946A384644F0200424
:100AD00094628CE70F69D3F838E0F41B04EB8404CC
:100AE000BE4204F10F0410D807F1FF3C05FA04F7E9
:100AF00047EA0C574FF01F0C0CFA04F444F440146E
:100B00002EEA04043C439C6371E71F2707FA04F4B0
:100B100044F440142EEA0404F5E7906A40F0200003
:100B20009062384688E74FF0070C1F692C440CFA96
:100B300004FC27EA0C070EFA04F43C431C618EE720
:100B4000996901EA0E01394399619FE7D96901EA80
:100B50000E013943D96199E7196A01EA0E01394357
:100B6000196293E7019B013BA5E7936A012043F0DB
:100B700020039362A3E70220A4E700BF0024014002
:100B80005400002040420F0000F0FFFF074A00021F
:100B9000D36800F4E06023F4E0631B041B0C43F013
:100BA000BF6343F400330343D360704700ED00E0BC
:100BB000174B30B5DC68C4F30224C4F10703251DCC
:100BC000042B28BF0423062D4FF0010598BF0024F5
:100BD00005FA03F303F1FF3388BF033C1940A1403A
:100BE00005FA04F4013C2240002842EA01024FEADF
:100BF0000212AFBF00F16040064B00F00F00D2B20E
:100C0000A5BFD2B200F561401A5480F8002330BD70
:100C100000ED00E014ED00E00123420900F01F00A8
:100C200003FA00F0014B43F82200704700E100E0B6
:100C30000138B0F1807F0AD2F021064B064A586095
:100C400082F823100020072298601A607047012064
:100C5000704700BF10E000E000ED00E010B5002894
:100C600032D00168194B1424994225D8184AA3F2AE
:100C700007430A44B2FBF4F2920002648468C3633F
:100C800043680A682343C46822F47F5223430469FB
:100C900022F0300223434469234384692343C46917
:100CA000234313430B600122002380F82120836338
:100CB00080F82030184610BD064B0B44B3FBF4F30C
:100CC0009B000364044BD9E7012010BD07040240D8
:100CD000F8FFFDBFF8FBFDBF00040240F0B590F83F
:100CE0002040012C35D0012490F8215080F820407C
:100CF000A5424FF000064FF0020428D180F82140B1
:100D0000046886632668076C26F001062660C66BB9
:100D1000BD407560636043680568102BC36A0BBFF4
:100D2000A260A160E160E2604BB1236843F00E0372
:100D300023602B68002043F001032B60F0BD236883
:100D400023F004032360236843F00A03F0E780F8EC
:100D500020600220F0BD000090F8213010B5022B79
:100D600003D004238363012010BD03681A6822F0B6
:100D70000E021A601A6822F001021A60294A934290
:100D800024D902F56272934219D01432934218D0DA
:100D90001432934217D0143293420CBF4FF4805355
:100DA0004FF48033204A53600123002480F821301F
:100DB000436B80F820409BB39847204610BD012329
:100DC000F0E71023EEE74FF48073EBE717498B420F
:100DD00016D014318B4215D014318B4214D01431FB
:100DE0008B4214D014318B4214D014318B4214D066
:100DF000934214BF4FF480334FF080730C4AD2E714
:100E00000123FBE71023F9E74FF48073F6E74FF473
:100E10008053F3E74FF48033F0E74FF48013EDE7AE
:100E2000184610BD80000240000402400800024045
:100E30000000024070B40425C66B026C346803687D
:100E400095402542196855D04D0753D51A68960626
:100E50005EBF1A6822F004021A60604A93421FD9EA
:100E600002F56272934214D01432934213D01432BA
:100E7000934212D0143293420CBF4FF480434FF48C
:100E80008023574A5360C36A002B00F0A58070BCD2
:100E900018470423F5E74023F3E74FF48063F0E7B6
:100EA00050498B4216D014318B4215D014318B42ED
:100EB00014D014318B4214D014318B4214D014311D
:100EC0008B4214D0934214BF4FF480234FF08063C1
:100ED000454AD7E70423FBE74023F9E74FF4806353
:100EE000F6E74FF48043F3E74FF48023F0E74FF445
:100EF0008003EDE702259540254257D08D0755D553
:100F00001A68940606D41A6822F00A021A600122AE
:100F100080F82120314A93421ED902F56272934231
:100F200013D01432934212D01432934211D014329F
:100F300093420CBF4FF400534FF40033284A5360E0
:100F4000002380F82030836A9EE70223F6E72023FF
:100F5000F4E74FF40073F1E722498B4216D01431C5
:100F60008B4215D014318B4214D014318B4214D0E3
:100F700014318B4214D014318B4214D0934214BFDD
:100F80004FF400334FF00073174AD8E70223FBE712
:100F90002023F9E74FF40073F6E74FF40053F3E72B
:100FA0004FF40033F0E74FF40013EDE708259540C8
:100FB000254211D009070FD5196821F00E011960DB
:100FC000012303FA02F27260836380F82130002368
:100FD00080F82030036B57E770BC704780000240F8
:100FE000000402400800024000000240114AD36899
:100FF00013F0100305D01049CB6943F00203CB6115
:101000001023D268500706D50B4943F00403CA6980
:1010100042F00102CA61074AD169C90708D50648EA
:10102000C16941F00401C161D16921F00101D161BF
:10103000D36070470020024090520020064B186990
:1010400010F0800007D0054A5A6002F188325A60D9
:101050001869C0F3C01070470020024023016745A3
:10106000034A0020136943F080031361704700BFF7
:1010700000200240F8B50646FFF7B8FA114C0746C3
:101080002546E368D80712D4E368990644BF2023B5
:10109000E360EB68DA0606D4EB69DB0703D4E868A3
:1010A00010F0040002D0FFF7A1FF0120F8BD731C6F
:1010B000E7D00EB90320F8BDFFF798FAC01B8642AF
:1010C000DFD2F7E7002002402DE9F84F1F4C994688
:1010D000237E0546012B0F46904633D001234CF268
:1010E00050302376FFF7C6FF40BB012D03D0022D01
:1010F0000CBF022504250026B246DFF854B03201A9
:1011000040464946FFF79CF8C4F81CA0DBF81030B5
:1011100080B243F00103CBF8103027F816004CF2F0
:101120005030FFF7A7FFDBF8103023F00103CBF8B6
:10113000103018B90136F3B29D42E0D8002323766F
:10114000BDE8F88F0220BDE8F88F00BF9052002064
:10115000002002400022064BDA61064B1A6942F079
:1011600004021A611A6942F040021A61704700BF16
:1011700090520020002002400022064BDA61064B0C
:101180001A6942F002021A6158611A6942F040027B
:101190001A61704790520020002002402DE9F04172
:1011A000234D07462B7E8846012B3DD00124036842
:1011B0002C76022B4CF2503013D1FFF75BFF20B19D
:1011C000012000232B76BDE8F081FFF7C3FF4CF22E
:1011D0005030FFF74FFF174A136923F004031361E0
:1011E000EFE7FFF747FF0028EAD14FF0FF33C8F8D9
:1011F00000302046BE680F4CFA68BB6803EBC22380
:101200009E42DED23046FFF7B7FF4CF25030FFF778
:1012100031FF236923F00203236110B1C8F8006095
:10122000CFE706F50066E7E70220BDE8F08100BFE2
:1012300090520020002002402DE9F74F0022164670
:10124000654BDFF8A4E1DFF8A4C14FF001080C689A
:1012500008FA06F808EA0404A0457FD14D68122D6B
:1012600000F0AF8000F28880022D00F0A7807CD8CB
:10127000002D00F08E80012D00F09E804FF00F09B0
:10128000FF2C93BF824606F18045083DD0F800B0A0
:1012900092BFB500D0F804B0AD0009FA05F82BEA0A
:1012A000080802FA05F588BF00F1040A48EA0505B6
:1012B000CAF80050D1F804A01AF0805F4ED0474D14
:1012C000464FAD6926F0030845F00105BD61BD69D3
:1012D00008F1804805F00105019508F5803806F011
:1012E000030B019D4FEA8B0BD8F8085009FA0BF954
:1012F00025EA09093A4DA84268D005F58065A8425B
:1013000066D005F58065A84264D005F58065A842E1
:101310000CBF0325042505FA0BF545EA0905C8F8B5
:1013200008501D681AF4803F14BF2543A5431D6073
:101330005D681AF4003F14BF2543A5435D609D68B6
:101340001AF4801F14BF2543A5439D60DD681AF47D
:10135000001F14BF2C4325EA0404DC600136102E64
:101360007FF473AF03B0BDE8F08F032D22D0112DB1
:1013700084D1CA68043281E71A4FBD4209D012D81D
:10138000DFF86C904D4504D009F580394D457FF468
:1013900075AF8A68C2B1012A0CBFC0F81080C0F8CE
:1013A000148008226AE77545F3D06545F1D0DFF86F
:1013B0004490EBE7002261E7CA685FE7CA68083239
:1013C0005CE7CA680C3259E7042257E70025A2E718
:1013D0000125A0E702259EE700040140001002401D
:1013E0000008014000002110000031100000321000
:1013F00000001110000022108368194214BF012060
:10140000002070470AB1016170470904FBE7C36817
:101410005940C1607047000003682DE9F341DB07C4
:10142000054614D42B689F0762D42B68190700F176
:1014300099802B685A0700F1C380EA6A002A40F0BD
:1014400031812A6A002A40F08481002014E0904C07
:10145000636803F00C03042B07D0636803F00C03EC
:10146000082B0CD16368DE0309D523689C03D9D50A
:10147000AB68002BD6D1012002B0BDE8F081AB688B
:10148000B3F5803F10D1236843F480332360FFF726
:10149000ADF8064623689803C4D4FFF7A7F8801B6D
:1014A0006428F7D90320E7E79BB9236823F4803346
:1014B0002360236823F480232360FFF797F8064610
:1014C00023689903AED5FFF791F8801B6428F7D9FC
:1014D000E8E7B3F5A02F236803D143F4802323600A
:1014E000D1E723F480332360236823F48023CDE7FE
:1014F000674C636813F00C0F07D0636803F00C03AC
:10150000082B10D16368DA030DD423689B0702D53A
:101510006B69012BAFD12368AA6923F0F80343EA72
:10152000C203236081E76A695A4B6AB101221A60DB
:10153000FFF75CF8064623689F07ECD4FFF756F8E0
:10154000801B0228F7D9ADE71A60FFF74FF806466F
:10155000236898077FF569AFFFF748F8801B0228DA
:10156000F6D99FE7EA694A4C4B4BDAB101221A607F
:10157000FFF73CF80646636A9B070DD54FF4FA5215
:10158000464B1B68B3FBF2F3019300BF019B5A1E4D
:101590000192002BF9D14CE7FFF728F8801B0228B5
:1015A000E9D97FE71A60FFF721F80646636A9F07CB
:1015B0007FF53FAFFFF71AF8801B0228F6D971E7D5
:1015C000334CE369DE0024D40127E36943F0805300
:1015D000E361E36903F080530093009B304E33686E
:1015E000D80518D52B69012B26D1236A43F00103B6
:1015F0002362FEF7FBFF41F288368046236A9A0792
:101600003FD5002F3FF419AFE36923F08053E36126
:1016100013E70027E2E7336843F480733360FEF793
:10162000E5FF80463368D905DCD4FEF7DFFFA0EB89
:1016300008006428F6D935E7ABB9236A41F2883847
:1016400023F001032362236A23F004032362FEF7DD
:10165000CDFF0646236A9B07D3D5FEF7C7FF801B45
:101660004045F7D91EE7052B236A03D143F0040355
:101670002362BAE723F001032362236A23F0040301
:10168000B6E7FEF7B3FFA0EB0800B042B6D909E712
:1016900000100240000042428004424254000020F8
:1016A000007000404F4C6368D80308D5636803F0AE
:1016B0000C03082B03D1E36AD9033FF5DCAE022A01
:1016C00033D12368DA0006D5E36A6A6B03F0F003CE
:1016D00093427FF4D0AE0023434E3360FEF786FF83
:1016E000074623681B011AD4E36A6A6B23F0F003F0
:1016F0001343E362E36A2A6B23F470631343E362E8
:1017000001233360FEF772FF064623681F013FF591
:1017100098AEFEF76BFF801B6428F6D9C2E6FEF791
:1017200065FFC01B6428DCD9BCE60022E36A23F411
:101730008033E3622C4B1A60FEF758FF064623689D
:1017400018017FF57EAEFEF751FF801B6428F6D9A5
:10175000A8E6244C636803F00C03082B3FF48BAE1F
:101760000023224E022A33602FD1FEF73FFF0746A7
:101770002368990123D46B6AB3F5803F09D1E26AEB
:1017800069680A43E262E26AE96822F00F020A43EA
:10179000E262A96A62680B4322F474121343636025
:1017A00001233360FEF722FF054623689A013FF5C7
:1017B0004CAEFEF71BFF401B0228F6D972E6FEF77F
:1017C00015FFC01B0228D3D96CE6FEF70FFF0546B4
:1017D00023689B017FF539AEFEF708FF401B022806
:1017E000F6D95FE6001002406800424260004242C3
:1017F000F0B589B06A462A4B03F10805144618680B
:101800005968083303C4AB422246F7D118689B8855
:101810002060A380234B04AC03F110052246186816
:101820005968083303C2AB421446F7D11E494B68CE
:1018300003F00C02082A31D1C3F3834208A8024402
:10184000DB0312F8206C26D5CB6A03F00F030344A8
:1018500013F8102CCB6A13F4803F144B16D0CF6AC8
:10186000CC6AC4F303240234A4FB0645A4FB0301A1
:1018700003FB0511C7F303130133A3FB0223FEF798
:10188000EBFC0D2E00D1400809B0F0BD03FB06F0C3
:10189000B0FBF2F0F5E706487043F5E70348F3E7DD
:1018A000E4560008F25600080010024000127A00C8
:1018B00000093D00544A2DE9F0411368054603F044
:1018C00007038B420E462AD329688C0734D4CA07F3
:1018D00047D44D4A136803F007039E42C0F082804C
:1018E0002A684A4C12F0040F40F08780130706D58F
:1018F00063682A6923F4605343EAC2036360FFF715
:1019000077FF6368424AC3F30313D35CD840414B6B
:1019100018600F20FEF728FE0020BDE8F081136854
:1019200023F007030B431360136803F00703994286
:10193000CAD00120BDE8F081344B11F0040F1EBF66
:101940005A6842F4E0625A60080742BF5A6842F49B
:1019500060525A605A68A86822F0F00202435A6046
:10196000B5E76A68294C012A23681CD113F4003FAB
:10197000DFD0636841F2883823F0030313436360C8
:10198000FEF734FE6B680746012B14D1636803F041
:101990000C03042B9DD0FEF729FEC01B4045F5D952
:1019A0000320BDE8F081022A02D113F0007FDFE7B7
:1019B00013F0020FDCE7022B0FD1636803F00C0376
:1019C000082B86D0FEF712FEC01B4045F5D9E7E78D
:1019D000FEF70CFEC01B4045E2D8636813F00C0F05
:1019E000F6D176E7136823F00703334313601368D7
:1019F00003F007039E429CD172E76368E96823F411
:101A0000E0630B43636071E7002002400010024076
:101A1000FF57000854000020044B054A5B68C3F3DD
:101A20000223D35C034A1068D8407047001002407C
:101A30000F58000854000020044B054A5B68C3F3AC
:101A4000C223D35C034A1068D8407047001002409C
:101A50000F5800085400002003682DE9F34113F0EB
:101A6000010F0546574C1FD0E369DA0047D4012720
:101A7000E36943F08053E361E36903F0805301932A
:101A8000019B514E3368DB053BD5236A13F4407349
:101A90004BD1236A6A6823F44073134323621FB156
:101AA000E36923F08053E3612A68930705D56368EF
:101AB000A96823F440430B436360570705D5E36AE5
:101AC000E96823F400330B43E362160705D5E36AA4
:101AD0002A6923F480231343E362E36A980366D4FC
:101AE000E36A590363D4286810F010001AD06368C1
:101AF000EA6923F4800313436360002012E00027A7
:101B0000BFE7336843F480733360FEF76FFD8046B0
:101B10003368D805B9D4FEF769FDA0EB0800642846
:101B2000F6D9032002B0BDE8F0816A6802F4407281
:101B30009342AED00120254A236A1060002023F48E
:101B4000407110602162D907A3D5FEF74FFD41F225
:101B500088380646236A9A079BD4FEF747FD801B08
:101B60004045F7D9DDE72368A96913F0806F04D0F9
:101B7000E26A02F0F0028A4222D1E36A23F0F00323
:101B80000B43E362E36A6A6923F47043134301225F
:101B9000E3620F4B1A60FEF729FD064623689A00A0
:101BA000A1D4FEF723FD801B6428F7D9B9E7236889
:101BB000DB00D8D5E36A6A6903F47043934292D09C
:101BC0000120AFE700100240007000404004424294
:101BD000700042420368DA6822F49072DA605A694F
:101BE00022F001025A61202380F83A307047000049
:101BF0002DE9F0470568C2682B69016923F4405359
:101C000013432B618368EA680B43416922F4B052A5
:101C100022F00C020B431343EB606B69826923F4DF
:101C2000407313436B61404B81469D424FF0190452
:101C300046D1FFF701FF04FB00F3D9F804604FF031
:101C40006408B600B3FBF6F3B3FBF8F31E01FFF72D
:101C5000F3FE6043D9F804309B00B0FBF3F7FFF7C5
:101C6000EBFE6043D9F804309B00B0FBF3F3B3FB09
:101C7000F8F308FB13731B013233B3FBF8F303F0E3
:101C8000F007FFF7D9FE6043D9F804209200B0FBBB
:101C9000F2FAFFF7D1FE6043D9F804309B00B0FBA5
:101CA000F3F3B3FBF8F308FB13A31B013233B3FBCD
:101CB000F8F303F00F033B433344AB60BDE8F08718
:101CC000FFF7AAFE04FB00F3D9F804604FF06408A4
:101CD000B600B3FBF6F3B3FBF8F31E01FFF79CFE6F
:101CE0006043D9F804309B00B0FBF3F7FFF794FE94
:101CF0006043D9F804309B00B0FBF3F3B3FBF8F377
:101D000008FB13731B013233B3FBF8F303F0F00746
:101D1000FFF782FE6043D9F804209200B0FBF2FA8C
:101D2000FFF77AFEB7E700BF00380140F8B5044678
:101D30000E4617461D4621680B6836EA030301D19B
:101D40000020F8BD6B1CF7D095B923680320DA6832
:101D500022F4D072DA605A6922F001025A6120231B
:101D600084F8393084F83A30002384F83830F8BDEC
:101D7000FEF73CFCC01B8542DDD2E6E710B5044609
:101D800040B390F8393003F0FF021BB980F83820D7
:101D900002F072F92423226884F83930D36820468F
:101DA00023F40053D360FFF723FF236800201A6950
:101DB00022F490421A615A6922F02A025A61DA68C2
:101DC00042F40052DA602023E06384F8393084F86A
:101DD0003A3010BD012010BD2DE9F0411F4690F8AA
:101DE00039300446202B0D4690464ED1002949D06B
:101DF000002A47D090F83830012B46D0012380F8D4
:101E000038300023C363212380F83930FEF7EEFB1E
:101E10000646A4F82480A4F82680E38C9BB26BB914
:101E20003B46324640212046FFF780FFA8B92023D9
:101E300084F8380084F83930BDE8F081E38C32460C
:101E4000013B9BB2E384A3688021B3F5805F204609
:101E50003B460ED1FFF76AFF10B10320BDE8F081C9
:101E60002B882268C3F308035360236943B9023502
:101E7000D3E7FFF75BFF0028EFD123682A785A6089
:101E80000135CAE70120BDE8F0810220BDE8F081FC
:101E900090F83A30202B20D1E9B1E2B190F83830F7
:101EA000012B1AD0C285828500232222C36380F8C9
:101EB0003A2002688162D16880F8383041F480713C
:101EC000D1605169184641F001015161D16841F07A
:101ED0002001D16070470120704702207047000048
:101EE00038B50446134694F83920202A2AD139B34C
:101EF00033B394F83820012A24D00122002584F835
:101F000038202122E384206BE56384F839200E4ACF
:101F1000A384216282620D4A4563C2620C4A026355
:101F200022680432FEF7DAFE6FF04002236828468A
:101F30001A605A6984F8385042F080025A6138BDFC
:101F4000012038BD022038BD571F0008851F00083A
:101F50000D200008704708B50368426A1B6813F03B
:101F600020030AD1D38413685A6922F080025A618F
:101F7000DA6842F04002DA6008BD1046FFF7EAFF77
:101F800008BD704708B5406AFFF7FBFF08BD90F831
:101F90003A3010B5222B36D183680169B3F5805FE2
:101FA0000268836A23D15268E9B9C2F3080223F8B0
:101FB000022B8362C48D013CA4B2C4858CB9036832
:101FC000DA6822F02002DA60DA6822F48072DA60DD
:101FD0005A6922F001025A61202380F83A3001F058
:101FE000EDFD002010BDD2B223F8012BE1E721B9AD
:101FF000591C526881621A70DCE75268591C816270
:1020000002F07F02F7E7022010BD7047416A08B571
:102010000B685A6991F8390021280AD1120608D5AF
:102020000022CA84DA6822F0C002DA60202281F835
:1020300039205B6991F83A20222A06D15B0604D543
:1020400000230846CB85FFF7C5FDCB6B084643F060
:102050001003CB63FFF7D9FF08BD0000036870B51C
:102060001A6804461607D9685D6907D196065AD5DD
:102070008D0658D5BDE87040FFF789BF15F0010502
:1020800002D111F4907F4ED0D30705D5CE0542BFC3
:10209000E36B43F00103E363500704D51DB1E36B29
:1020A00043F00203E363930704D51DB1E36B43F0F0
:1020B0000403E363160704D51DB1E36B43F0080383
:1020C000E363E36B002B66D0950604D5880602D542
:1020D0002046FFF75CFF236820465D69E26B11072D
:1020E00002D415F040051AD0FFF774FD23685A6931
:1020F000520610D55A69606B22F040025A6150B105
:10210000254B4363FEF728FE002844D0606BBDE8F2
:102110007040436B18472046FFF777FF70BDFFF70D
:1021200074FFE56370BD160627D50D0625D594F816
:102130003920212A2FD1A268B2F5805F226A17D1F7
:102140001188C1F308015960216979B9023222620C
:10215000E28C013A92B2E284EAB9DA6822F08002B3
:10216000DA60DA6842F04002DA6070BD0132EEE710
:10217000511C216212785A60EAE750060BD54A06D4
:1021800009D5DA68204622F04002DA60202384F87C
:102190003930FFF7DFFE70BD9D21000808B5002330
:1021A000406AC385C384FFF730FF08BD08B500F05F
:1021B0006DFE002008BD08B501F0FAF8012803D033
:1021C000BDE8084000F0E6B808BD00F10803436030
:1021D0004FF0FF32C36003610023826003607047E9
:1021E00000230361704743689A684B608A609A686D
:1021F00051609960036808610133036070470A68A1
:1022000030B5531C0AD103695A684A6091608B60EB
:102210005960036808610133036030BD00F10803B1
:102220005C682568AA42EFD32346F9E741688268D3
:1022300003698A60826851605968884208BF5A60A1
:102240000022026118680138186070470A4B1B6849
:10225000013308D04FF0500383F31188BFF36F8F21
:10226000BFF34F8FFEE74FF0500383F31188BFF3A6
:102270006F8FBFF34F8FFEE708000020064800680D
:10228000006880F3088862B661B6BFF34F8FBFF372
:102290006F8F00DF00BF000008ED00E04FF080739B
:1022A00040F8043C054B21F0010140F8081C40F8BF
:1022B0000C3C40F8202C4038704700BF4D220008ED
:1022C000074B19680868B0E8F00F80F30988BFF37E
:1022D0006F8F4FF0000080F311884EF00D0E7047A5
:1022E000845000204FF0500383F31188BFF36F8FA9
:1022F000BFF34F8F0A4A13680133012B13600DD1CE
:10230000084B1B6813F0FF0F08D04FF0500383F306
:102310001188BFF36F8FBFF34F8FFEE7704700BF89
:102320000800002004ED00E0084A136843B94FF0AC
:10233000500383F31188BFF36F8FBFF34F8FFEE716
:10234000013B13600BB983F311887047080000202C
:10235000EFF30980BFF36F8F0D4B1A6820E9F00F80
:1023600010602DE908404FF0500080F3118800F014
:1023700039FF4FF0000080F31188BDE8084019686C
:102380000868B0E8F00F80F30988BFF36F8F7047DB
:102390008450002008B54FF0500383F31188BFF339
:1023A0006F8FBFF34F8F00F0B5FD18B14FF0805223
:1023B000024B1A60002383F3118808BD04ED00E08E
:1023C0004FF47A72054B1B68B3FBF2F3044A013BEE
:1023D00013600722034B1A60704700BF54000020AF
:1023E00014E000E010E000E013B51F4B00211A7864
:1023F000D2B20192FF221A701B781C4ADBB28DF810
:1024000003309DF8033003F0500313700722184B7C
:102410001A609DF80300541E00061CD401B11A6016
:102420001A68120202F4E0621A60019B0E4ADBB2E3
:102430001370104B1A6842F470021A601A6842F066
:1024400070421A60FFF7BCFF00220B4B1A60FFF7C7
:1024500015FFFFF7FBFE9DF8032001215200D2B2C9
:102460008DF803202246D4E700E400E04402002077
:102470004802002020ED00E008000020EFF3058373
:102480000F2B0ED9104A9B5C104A12789A4208D939
:102490004FF0500383F31188BFF36F8FBFF34F8F5B
:1024A000FEE70B4B0B4A1B68126803F4E063934290
:1024B00008D94FF0500383F31188BFF36F8FBFF338
:1024C0004F8FFEE7704700BFF0E300E044020020BA
:1024D0000CED00E04802002010B50F4B1A68824254
:1024E00018D35C681919884201BF41681846091958
:1024F0005960446801198A4207D1084909688A422B
:102500001FBF51681268091941609842026018BFE4
:10251000186010BD1346E1E77C5000204C020020FB
:102520002DE9F041044600F0EDFC3D493D4D0B68BE
:10253000FBB93D4A002056070FBF44F6206307321F
:102540003A4B22F0070218BF9B1A1344384E083B3F
:1025500023F0070370603260586018600B60981AAF
:102560001360344B50601860334B18604FF00043D9
:102570002B602F68274216D1002C40D004F10803AD
:1025800058071CBF23F00703083363B12A4A1668B3
:102590009046B34207D8264A15686868834204D833
:1025A00009688D4207D1002429E02C68002CF7D05F
:1025B0002A462546F1E7296814681160C21A102AD4
:1025C0000FD9E818410708D04FF0500383F3118862
:1025D000BFF36F8FBFF34F8FFEE742606B60FFF773
:1025E0007BFF6B681349F61A1F4300230868C8F87D
:1025F0000060864238BF0E6008346F602B6000F0C8
:102600001BFD630708D04FF0500383F31188BFF31D
:102610006F8FBFF34F8FFEE72046BDE8F08100BF0C
:102620004C0200207050002050020020705000200A
:102630007C500020785000207450002010B50446D3
:1026400070B3184A50F8043C1268134208D14FF096
:10265000500383F31188BFF36F8FBFF34F8FFEE7F3
:1026600050F8081C41B14FF0500383F31188BFF3B9
:102670006F8FBFF34F8FFEE723EA020340F8043C5D
:1026800000F040FC084A54F8043C1168A4F108002A
:102690000B441360FFF720FFBDE8104000F0CCBCF6
:1026A00010BD00BF705000207450002070B515465A
:1026B000026C0446866B42B905689DB9406800F01B
:1026C000CFFE65600136A66370BD6DB9806801F00C
:1026D000DBFEA368226C13446268A360934201D3BB
:1026E0002368A3600020EDE7C06801F0CDFE236CF5
:1026F000E2685B4221681A448A42E2603EBF626837
:102700009B18E360022DEDD10EB1013EEAE73046A1
:10271000D8E703461A6C10B4084662B1D9685C6801
:102720001144A142D96028BF196810BC28BFD960E4
:10273000D96801F0A9BE10BC704770B50446FFF718
:10274000D1FD94F8455004F124066DB2002D14DC3F
:10275000FF2384F84530FFF7E7FDFFF7C3FD94F84A
:10276000445004F110066DB2002D12DCFF2384F8F2
:102770004430BDE87040FFF7D7BD636A002BE7D057
:10278000304600F083FD08B100F00CFE013D6DB253
:10279000DCE72369002BE9D0304600F077FD08B173
:1027A00000F000FE013D6DB2DEE7000038B50D46D9
:1027B000044640B94FF0500383F31188BFF36F8F85
:1027C000BFF34F8FFEE7FFF78DFD206CE36B2268B0
:1027D0004343D1181B1A13446160E3600021FF23B7
:1027E000A163A26084F8443084F8453095B9236928
:1027F00063B104F1100000F049FD38B14FF0805290
:10280000094B1A60BFF34F8FBFF36F8FFFF78CFD3B
:10281000012038BD04F11000FFF7D7FC04F12400BB
:10282000FFF7D3FCF2E700BF04ED00E070B50D4602
:10283000064640B94FF0500383F31188BFF36F8F02
:10284000BFF34F8FFEE748434830FFF769FE044669
:1028500038B145B92060E663256401212046FFF7C1
:10286000A5FF204670BD00F148030360F3E70000B8
:102870002DE9FF47894601921F46044640B94FF0B3
:10288000500383F31188BFF36F8FBFF34F8FFEE7C1
:10289000002940F08880036C002B00F084804FF00A
:1028A000500383F31188BFF36F8FBFF34F8FFEE7A1
:1028B000019E002E00F082804FF0500383F31188B8
:1028C000BFF36F8FBFF34F8FFEE7019D1DB9FFF779
:1028D0002BFD002058E016B902A800F019FDFFF703
:1028E00023FD00F00FFBFFF7FDFC94F84430FF2BB5
:1028F00008BF84F8448094F84530FF2B08BF84F863
:102900004580FFF711FD01A902A800F011FD002884
:1029100043D1FFF7E7FCA66BE56BFFF705FDAE4281
:1029200035D1019904F1100000F096FC2046FFF724
:1029300004FF00F081FB38B94FF08053CAF8003033
:10294000BFF34F8FBFF36F8F0126FFF7CBFCA26B56
:10295000E36B9A4201D3022FB7D13A46494620464B
:10296000FFF7A4FE636A1BB104F1240000F08EFCA3
:1029700038B14FF08052184B1A60BFF34F8FBFF33E
:102980006F8FFFF7D1FC012004B0BDE8F08720462F
:10299000FFF7D3FE00F050FBD6E72046FFF7CDFE51
:1029A00000F04AFB95E7022F02D1E36B012B0AD11D
:1029B00000F0FEFC00283FF47BAF00264FF000083B
:1029C000DFF814A0C1E74FF0500383F31188BFF381
:1029D0006F8FBFF34F8FFEE704ED00E02DE9F84362
:1029E000884691461F46044640B94FF0500383F392
:1029F0001188BFF36F8FBFF34F8FFEE709BB036CE6
:102A0000FBB14FF0500383F31188BFF36F8FBFF317
:102A10004F8FFEE704F1240000F038FC002834D08A
:102A2000B9F1000F31D00120C9F8000086F31188F8
:102A3000BDE8F88301356DB284F8455025E00020EB
:102A4000F4E7022F02D1E36B012B20D1FFF716FD33
:102A5000EFF311864FF0500383F31188BFF36F8FAC
:102A6000BFF34F8FA26BE36B9A4201D3022FE6D1E3
:102A700094F845503A466DB241462046FFF716FE9F
:102A80006B1CD7D1636A002BC4D10120CEE74FF075
:102A9000500383F31188BFF36F8FBFF34F8FFEE7AF
:102AA0002DE9FF47884601929946044640B94FF008
:102AB000500383F31188BFF36F8FBFF34F8FFEE78F
:102AC000002940F0A580036C002B00F0A1804FF09E
:102AD000500383F31188BFF36F8FBFF34F8FFEE76F
:102AE000019E002E00F09A804FF0500383F311886E
:102AF000BFF36F8FBFF34F8FFEE7636AE660002B73
:102B00006DD004F124005FE0019D1DB9FFF70CFCBE
:102B1000284667E016B902A800F0FAFBFFF704FCAC
:102B200000F0F0F9FFF7DEFB94F84430FF2B08BF0C
:102B300084F8447094F84530FF2B08BF84F8457042
:102B4000FFF7F2FB01A902A800F0F2FB002852D126
:102B5000FFF7C8FBA56BFFF7E7FB002D45D1236806
:102B600033B9FFF7BFFB606800F032FCFFF7DCFB16
:102B7000019904F1240000F06FFB2046FFF7DDFD12
:102B800000F05AFA38B94FF08053CAF80030BFF35A
:102B90004F8FBFF36F8F0126FFF7A4FBA56B002DAE
:102BA000B2D041462046E668FFF7B3FDB9F1000F09
:102BB000A3D12368013DA56313B900F0A1FC6060B7
:102BC000236963B104F1100000F060FB38B14FF0ED
:102BD0008052144B1A60BFF34F8FBFF36F8FFFF714
:102BE000A3FB012004B0BDE8F0872046FFF7A5FD58
:102BF00000F022FACFE72046FFF79FFD00F01CFA15
:102C0000FFF770FBA56BFFF78FFB002DC3D17FE7AC
:102C100000F0CEFB00283FF463AF00260027DFF86A
:102C200004A0B9E704ED00E0064A13681968064BF2
:102C300019B94FF0FF321A6070471268D268D26833
:102C40005268F8E78850002060510020F8B51B4B0F
:102C50001B4E1D68044630680F460430FFF7E6FA45
:102C6000334640B901203168164EC96A326888403F
:102C700022EA00023260621C07D137B1196812489B
:102C80000431BDE8F840FFF7AEBA2C441A68A542FB
:102C9000546007D90D4A10681968BDE8F84004313E
:102CA000FFF7ADBA0A4A106819680431FFF7A7FAAE
:102CB000084B1A68944238BF1C60F8BDA851002028
:102CC0008450002030510020805100208C50002082
:102CD00088500020605100204FF0500383F311888A
:102CE000BFF36F8FBFF34F8FFEE700002DE9F84F62
:102CF0004FEA820A804650460F4699460B9EFFF7E0
:102D00000FFC0546002800F096805420FFF708FCD1
:102D10000446002800F08C80AAF1040A056355449B
:102D20007B1E25F0070A00F134020F37597802F8AC
:102D3000011B13F8011F09B1BB42F7D10A9D4FF0E7
:102D4000000B062D28BF0625271DE5626564384661
:102D500084F843B0C4F848B0FFF742FAC5F107055C
:102D600004F11800FFF73CFAC4F84CB02461A561E7
:102D7000646284F850B04A4641465046FFF78EFAE6
:102D8000206006B13460FFF7ADFA324B324E1A685C
:102D9000DFF8F08001321A603568002D4ED13460C2
:102DA0001B68012B1DD108EB05001435FFF70DFA48
:102DB0008C2DF8D1DFF8D090284D4846FFF705FA62
:102DC0002846FFF702FA2648FFF7FFF92548FFF7E4
:102DD000FCF92548FFF7F9F9244BC3F80090244B80
:102DE0001D600125234A24491368086801331360D4
:102DF000E26A05FA02F3034314200B6000FB028031
:102E00003946FFF7F0F9FFF78FFA1C4B1B6863B1E7
:102E10003368DA6AE36A9A4207D24FF08052184B5D
:102E20001A60BFF34F8FBFF36F8F2846BDE8F88F4E
:102E30002846FFF703FC4FF0FF35F6E70F4B1B6802
:102E4000002BCED13368DA6AE36A9A4298BF3460C5
:102E5000C7E700BF1C5100208450002048510020CB
:102E6000685100209451002080510020885000209B
:102E70008C5000202C510020305100207C5100202B
:102E800004ED00E0905000203451002013B50024E0
:102E9000164B009401938022234615491548FFF7ED
:102EA00025FF012814D14FF0500383F31188BFF39D
:102EB0006F8FBFF34F8F4FF0FF320F4B1A600F4BE6
:102EC00018600F4B1C6002B0BDE81040FFF78CBAD1
:102ED000013008D14FF0500383F31188BFF36F8F97
:102EE000BFF34F8FFEE702B010BD00BF5C51002062
:102EF0003857000871310008605100207C510020D3
:102F0000A8510020024A136801331360704700BFC4
:102F1000285100202DE9F84F3C4B1B68002B53D162
:102F20003B4B1C6801341C60BCB93A4B1A681268F0
:102F300042B14FF0500383F31188BFF36F8FBFF39B
:102F40004F8FFEE7344A1968106818601160334AE1
:102F5000136801331360FFF767FE314D4FF0000B2C
:102F60002B68304F9C423ED3DFF8A880DFF8C49036
:102F7000D8F80020126872BB4FF0FF322A6032E0AE
:102F800006F1040A5046FFF751F9B16A19B106F18A
:102F90001800FFF74BF901224FF0140EF06AD9F830
:102FA000003002FA00F119431F4BC9F800100EFB64
:102FB00000305146FFF717F93868F16AC26A91424A
:102FC00028BF4FF0010BD3E7184A4FF0000B1368EE
:102FD0000133136011E0D8F80020D268D668716818
:102FE0008C42CDD229603A680F4BD16A14224A43F1
:102FF0009A58022A28BF4FF0010B0D4A1268002A86
:1030000018BF4FF0010B5846BDE8F88F285100203B
:10301000A8510020885000208C50002064510020CE
:103020006051002084500020905000202451002046
:10303000AC510020305100202DE9F843314C236879
:1030400043B94FF0500383F31188BFF36F8FBFF381
:103050004F8FFEE7FFF746F92368013B23602468A2
:103060002CB10024FFF760F92046BDE8F883264B19
:103070001B68002BF5D0DFF8A890244FDFF8A48060
:10308000D9F80030E3B90CB1FFF7CEFD204D2C6824
:1030900044B101271F4EFFF73DFF00B13760013CEF
:1030A000F9D12C601B4B1B68002BDAD04FF08052FB
:1030B000194B1A60BFF34F8FBFF36F8F0124D1E715
:1030C000D9F80C300125DC68261D04F11800FFF743
:1030D000ADF83046FFF7AAF81420E26A396805FA1D
:1030E00002F30B4300FB028031463B60FFF77BF8A5
:1030F0000A4BE26A1B68DB6A9A4224BF054B1D60DB
:10310000BEE700BF285100201C5100203051002094
:1031100024510020AC51002004ED00E08450002038
:10312000685100209050002008B540B94FF08052FF
:103130000D4B1A60BFF34F8FBFF36F8F08BD0B4B62
:10314000196841B14FF0500383F31188BFF36F8FBB
:10315000BFF34F8FFEE7FFF7D5FEFFF777FDFFF7D1
:103160006BFF0028E2D008BD04ED00E028510020EC
:1031700008B5174E174C236863B9174B1B68012B12
:10318000F8D94FF08052154B1A60BFF34F8FBFF341
:103190006F8FEFE7FFF7B6FE3568FFF74DFF002DA5
:1031A000E9D0FFF79FF8F368DD68281DFFF73EF8C8
:1031B0000B4A1368013B13602368013B2360FFF750
:1031C000B3F8286BFFF73AFA2846FFF737FAD2E749
:1031D00094510020205100209050002004ED00E088
:1031E0001C510020174B10B51A68174B12B1012261
:1031F0001A6010BD1A60154B1B68B3FA83F31422D2
:10320000DBB2C3F11F035A4311498C58881844B9E3
:103210004FF0500383F31188BFF36F8FBFF34F8FCD
:10322000FEE74468083264680A44944208BF626852
:10323000446008BF4260142202FB03135B68DA6833
:10324000044BD5E728510020AC510020305100201C
:10325000905000208450002010B50C4640B94FF02B
:10326000500383F31188BFF36F8FBFF34F8FFEE7D7
:10327000054B19681831FEF7C2FF2046BDE8104023
:103280000121FFF7E3BC00BF8450002038B5C368BC
:10329000DC6844B94FF0500383F31188BFF36F8F9C
:1032A000BFF34F8FFEE704F118052846FEF7BEFF77
:1032B000114B1B68E3B9251D2846FEF7B7FF012314
:1032C0000E49E26A08689340034314200B602946C4
:1032D0000B4B00FB0230FEF786FF0A4BE26A1B68CD
:1032E000DB6A9A4285BF0120074B0020186038BD79
:1032F00029460648EFE700BF285100203051002042
:103300009050002084500020AC51002068510020D3
:1033100008B508B9FFF7E0FC034B1B680360034BDB
:103320001B68436008BD00BF64510020A851002005
:1033300038B50D46044640B94FF0500383F3118869
:10334000BFF36F8FBFF34F8FFEE741B94FF05003CC
:1033500083F31188BFF36F8FBFF34F8FFEE7FEF744
:10336000C1FF0E4B19682B685A1C10D00C4A2068FC
:1033700012689042626801D091420DD2881A83424D
:103380000AD95B1A13442B602046FFF7C1FF0024C3
:10339000FEF7CAFF204638BD0124F9E7A8510020F6
:1033A000645100200122014B1A607047AC5100208B
:1033B000054B1B6833B1054B1B68002B0CBF02206B
:1033C00000207047012070477C51002028510020C8
:1033D0002DE9F0410446002839D01E4DC36A2A6801
:1033E000D26A934233D2142782691B4E002AA8BFA7
:1033F0002A6807FB0363A2BFD26AC2F10702826197
:1034000042699A4220D100F104084046FEF70EFFBF
:10341000124A48B9E06A4743F3592BB901211368AE
:10342000814023EA010313602B681168D86A0123E5
:1034300083400B4313601423E062414603FB0060AA
:10344000BDE8F041FEF7CFBE2B68DB6AC362BDE882
:10345000F08100BF845000209050002030510020A7
:10346000F8B5044608B90020F8BD224B1B68984205
:1034700008D04FF0500383F31188BFF36F8FBFF371
:103480004F8FFEE7836C43B94FF0500383F31188ED
:10349000BFF36F8FBFF34F8FFEE7C16A426C013BF2
:1034A00091428364DFD0002BDDD1051D2846FEF755
:1034B000BDFE114E114A50B91421E76A7943735881
:1034C0002BB901201368B84023EA00031360636C32
:1034D000C3F10701E362A1610124116804FA03F05A
:1034E000084310601420294600FB0360FEF77BFEB2
:1034F0002046F8BD8450002090500020305100201C
:10350000044B1A681AB119688A6C01328A64186807
:10351000704700BF845000202DE9F84300252F4656
:10352000214EDFF88C80DFF88C9020213046FDF7AB
:1035300063FF8742044628D00120FFF7F5FD2021D4
:103540003046FDF759FF874204461ED0E8B10DBB57
:10355000012280213046FDF755FF2A4604214046CE
:10356000FDF750FF3220FFF7DFFD4FF40053082234
:1035700049460E48FEF730FC3220FFF7D5FD012208
:1035800004214046FDF73EFF01250520FFF7CCFD55
:103590002746CAE7002280213046FDF733FF002589
:1035A00000F000FFF1E700BF000C0140B453002021
:1035B000001401403D5700082DE9F04F0025784EDA
:1035C00085B030682B464FF0FF3229460395FFF750
:1035D00067FA0096734E002300984FF0FF321946A9
:1035E0000068FFF75DFA0128F5D16F4B1C78002CBD
:1035F00063D1DFF8D0916D4FDFF8CC81347014F8CF
:1036000009A037F8142038F81430BAF1000F45D06B
:103610009A4213D2664B002233F82410654B53F8BC
:103620002400FDF7EFFE0122634B33F82410634BB7
:1036300053F82400FDF7E6FE012333700134042C17
:10364000DDD132785E4BB2BB4FF4FA701A700024B1
:10365000FFF76AFDDFF86081584F38F8241057F8FB
:10366000240000220134FDF7CDFE042CF5D14FF4E7
:10367000FA70FFF759FD0024DFF834814D4F38F818
:10368000241057F8240000220134FDF7BBFE042C5F
:10369000F5D14FF47A70FFF747FD9CE79A42CDD9F8
:1036A000434B012233F82410424B53F82400FDF71A
:1036B000A9FE5246B8E70122C6E7042D6CD90024C2
:1036C000DFF8F090DFF8E8803C4FDFF8ECA03470D2
:1036D00003AD2A78A300042A01934AD8012339496B
:1036E000337014F801B03849BBF1000F2DD02F48CA
:1036F00031F8141030F81400884222D24FF0000B39
:103700001A4685F800B0B8F80010D9F80000FDF7A7
:1037100079FE0022A3003AF8031038680134FDF75F
:1037200071FE042C05F1010509F1040908F10408F2
:1037300007F10407CDD13278214B4ABB1A700A2514
:1037400049E7531C2B700022DDE70193174B31F83A
:10375000141033F814008842F3D95A4685F800B0A3
:10376000B8F80010D9F80000FDF74CFE019B1A468E
:10377000D0E74FF0000BB8F800105A4685F800B0BB
:10378000D9F80000FDF73EFE5A463AF82410C4E787
:10379000012200251A701EE76C1CE5B21BE700BF72
:1037A0003C53002070520020B05100204C000020FB
:1037B0002C0000203C0000200C0000201C000020F9
:1037C0006C520020715200206452002008B5054C54
:1037D00020464021FDF71BFE4FF4FA70FFF7A4FCD2
:1037E000F6E700BF000C0140012204210148FDF76B
:1037F00009BE00BF0014014037B52E4901222E4CEE
:103800002E48FEF745FB2E48FDF76AF800F09CF8BD
:103810002046FCF703FF94E80C001344A26813440D
:10382000284A1B0C1380FFF7DFFF03220021012031
:10383000FEF7FCFF244A106020B100231A46194607
:10384000FFF716F800240125234601940095C822AD
:103850001E491F48FFF74AFA234601940095C822E3
:103860001C491D48FFF742FA2346019400954FF486
:1038700000721A491A48FFF739FA0323019400939A
:103880004FF40072234617491748FFF72FFA2346D3
:10389000019400954FF4C87214491548FFF726FAB1
:1038A000224640210220FEF7C1FF124B186003B0F0
:1038B00030BD00BF04540020B4510020B453002098
:1038C000845300206E5200203C53002046570008CD
:1038D000CD3700084C57000819350008515700082B
:1038E000C14100085A5700086D3C000862570008A3
:1038F000B93500080054002070B586B0FDF79EFB76
:103900000023029301230D4C01A902A804940593FE
:10391000FDF744FC0A4E0B4D04F17843A3F5FE334A
:103920009A592146002302200434FDF7CDFBAC4216
:10393000F2D1FDF795FB06B070BD00BF00FC010899
:10394000C051002024FC010810B5064B0648074969
:103950001C6803F178420433A2F5FE328B42145006
:10396000F6D110BD00FC0108C051002024FC010864
:10397000382230B59DB00DEB0200002100F08FFD24
:103980001422002101A800F08AFD2022002106A8AF
:1039900000F085FD4FF48033022401251093179326
:1039A0004FF4C0130EA818930E9513951694FDF7B7
:1039B00033FD0F230193002303934FF480632146CB
:1039C00001A8049305930294FDF774FF4FF480431C
:1039D00006A808930694FEF73FF8024B1D601DB041
:1039E00030BD00BF7000424280B56B4D8EB0FCF719
:1039F000DFFDFFF7BDFF1022002106A800F04FFDFC
:103A0000AB69002243F02003AB61AB6941F60F4183
:103A100003F020030293029BAB69604843F010035C
:103A2000AB61AB69002403F010030393039BAB6904
:103A3000012643F00403AB61AB694FF0020803F0C9
:103A400004030493049BAB69042743F00803AB61B0
:103A5000AB6903F008030593059BFDF7D3FC002237
:103A60004FF400414E48FDF7CDFC012204214D48A2
:103A7000FDF7C8FC00224FF470714B48FDF7C2FC03
:103A800041F60F4306A94548069307960894099600
:103A9000FDF7D2FB4FF4407306A940480693079404
:103AA0000894FDF7C9FB4FF4004306A93C48069370
:103AB00007960894CDF82480FDF7BEFB06A9394887
:103AC0000697079608940996FDF7B6FB4FF47073B6
:103AD00006A935480693079608940996FDF7ACFBAE
:103AE0006B69224633436B616B6905213340019357
:103AF0000E20019BFDF75CF80E20FDF78DF82022CB
:103B0000214606A800F0CBFC284D294B28462B6007
:103B10004FF48073AB604FF46023EC60EB616C6139
:103B20006C602E61FCF75CFE062308934FF4E043C3
:103B300006A928460D93069607960A970C940B94AF
:103B40000994FCF737FF06A92846CDF81880CDF870
:103B50001C80FCF72FFF032306A928460693079332
:103B6000FCF728FF06A9284606970797FCF722FFCF
:103B70004FF496430F48104A846080E80C000C23F1
:103B8000C460436104618461C461FEF7F7F8FFF724
:103B900033FEFEF70BFBFEE7001002400010014071
:103BA0000008014000140140000C01408453002033
:103BB00000240140B4530020003801400268164B35
:103BC00013B59A4225D1154B1A780D2A1CD0144CE6
:103BD00014492378CA540133DBB2402B08BF0023B9
:103BE0000A2A23700ED122780E490F4800F04CFCAF
:103BF0000E48002301AA0C490068FEF7EFFE0023DF
:103C0000237001E0FF2AFAD0012204490848FEF798
:103C10003FF902B010BD00BF00380140045400203D
:103C2000FE530020B0520020F0520020005400202B
:103C3000B453002038B501210546FCF7ABFE094C12
:103C4000022120802846FCF7A5FE0321608028463B
:103C5000FCF7A0FE0421A0802846FCF79BFEE08034
:103C600038BD00BF34530020704700002DE9F047F5
:103C700096B04022002106A800F011FC00231E4649
:103C8000DFF83083DFF83093ADF814308DF8113061
:103C90008DF81230ADF816308DF81330A8F1020A05
:103CA000AB4C00234FF0FF3206A92068FEF7F8FE68
:103CB00001280546F5D10024A64B1C709DF818304C
:103CC000732B00F08D80782B00F0D3806D2BE7D123
:103CD0000DF11203009305AA0DF111039E4906A8E8
:103CE00000F00AFC9DF82230BDF814208DF8123047
:103CF0009DF81130303B8DF81130984B1B889A425B
:103D000012D19749974AC8880B8892880290888870
:103D10000190498894480091944900F0C9FB924968
:103D2000C2B29348FEF7DCF89DF812209642B7D055
:103D30000021904B12F00102197018BF01220821D6
:103D40008D48FDF75FFB9DF81220042112F002025E
:103D500018BF01228848FDF755FB9DF8122002216B
:103D600012F0040218BF01228348FDF74BFB9DF8B7
:103D70001220012112F0080218BF01227E48FDF72F
:103D800041FB9DF812204FF4805112F0100218BF31
:103D900001227948FDF736FB9DF812204FF40061AF
:103DA00012F0200218BF01227348FDF72BFB9DF88B
:103DB00012204FF4806112F0400218BF01226E48B9
:103DC000FDF720FB9DF912304FF40041002BB4BFEA
:103DD000012200224846FDF715FB9DF812605FE7BF
:103DE0009DF81930782B0ED105AA644906A800F079
:103DF00083FB5A4BBDF814201B889A427FF450AFC6
:103E00005C4B1C704CE72C2B7FF44AAF5C4F0DF1E0
:103E10001303039305AABB1ECDF80880CDF804A0B8
:103E20000097584906A800F067FB4C4BBDF81420DA
:103E30001B889A427FF434AF9DF813302046312B13
:103E400014BF22462A46504BDFF814E14F491A703E
:103E5000023F37F814303EF814209A4294BF2B46A4
:103E600003460B550134042CF3D10122414B1A7047
:103E700016E7404B1C709DF819303F2B12D1444A75
:103E8000444906A800F038FB344B364A1B88928818
:103E90004149354800F00CFB3349C2B23448FEF7C3
:103EA0001FF8FDE6632B7FF4FBAE0DF1160305AAA8
:103EB0003A4906A800F020FB284FBDF816103B88B1
:103EC000BDF8142000912848354900F0F1FA4FF46C
:103ED0000053C2B224492648FDF77EFFBDF81420E6
:103EE0003B889A427FF4DCAEBDF816301D4F3B7024
:103EF000FFF702FDBA882B491B4800F0D9FA1A498E
:103F0000C2B21B48FDF7ECFF6420FFF70DF9224613
:103F100004212548FDF776FA3220FFF705F9BDF8B0
:103F200016202249104800F0C3FA0F49C2B21048C7
:103F3000FDF7D6FF3220FFF7F7F82A4604211A488A
:103F4000FDF760FA224680211948FDF75BFAA7E6E3
:103F50000054002075520020685700086E5200205F
:103F60004C000020C0510020E4510020765700088A
:103F7000B45300206C520020001001408E570008FE
:103F80006652002097570008B0510020715200205F
:103F9000C4510020B2570008BA570008C85700089B
:103FA000D5570008E857000800140140F5570008ED
:103FB000000C01406A52002000080140114B07B577
:103FC0009A690F2142F001029A619A696FF001002B
:103FD00002F001020092009ADA6942F08052DA613E
:103FE000DB69002203F080530193019BFCF7E0FDA5
:103FF000054A536823F0E06343F00073536003B055
:104000005DF804FB001002400000014010B50446BA
:1040100086B01022002102A800F041FA2268144B59
:104020009A4223D103F56C439A6902A942F40072C3
:104030009A619A690F4802F400720092009A9A6994
:1040400042F004029A619B6903F004030193019B0F
:104050003E23029303230393FDF7EEF81220002280
:104060000521FCF7A5FD1220FCF7D6FD06B010BD1A
:104070000024014000080140F0B51027064687B033
:104080003A46002102A800F00AFA3268254B9A420B
:1040900045D103F558439A6902A942F480429A61D6
:1040A0009A69214802F480420092009A9A69002598
:1040B00042F004029A619B691C4C03F004030193D3
:1040C000019B4FF400730293022303930323059390
:1040D000FDF7B2F84FF48063134802A902930395E9
:1040E0000495FDF7A9F8124B204684E88800802348
:1040F000E3604FF48053A56025616561A561E361CC
:10410000FCF7ACFD08B1FFF7AFFD252034630022BA
:1041100005216662FCF74CFD2520FCF77DFD07B00C
:10412000F0BD00BF003801400008014040530020AE
:10413000440002407047FEE7FEE7FEE7FEE77047F7
:1041400008B5FCF747FABDE80840FEF734B80000B0
:104150000148FCF76FBE00BF405300200148FCF748
:104160006FBA00BF845300200148FDF777BF00BF3E
:10417000B4530020F0B58BB06C4606460F4D0F4689
:104180000FCD0FC40FCD0FC495E8030084E80300E2
:1041900006F1120333F8022D9E425A80FAD1002311
:1041A0001846378036F813205DF8231001330A2BA8
:1041B00001FB0200F6D1000C0BB0F0BD0457000863
:1041C0002DE9F04395B014220021684600F067F90C
:1041D0001422012300210DEB0200ADF8003000F0A5
:1041E0005EF90223142200210AA8ADF8143000F071
:1041F00056F90323142200210FA83B4EADF82830B6
:1042000000F04DF90423B046384FADF83C30337818
:10421000322B4AD90024364D37F8241055F82400A3
:104220000022FDF7EFF8334B002233F82410324B15
:1042300053F824000134FDF7E5F8042CECD10023F9
:1042400088F800302D4B2E4C1A882E4822805A8830
:104250002D4D62809A88DB88A280E380FCF740FBCA
:1042600021886846FFF786FF6188288005A8FFF748
:1042700081FFA18868800AA8FFF77CFFE188A880F9
:104280000FA8FFF777FF214BE8801B78204D012B0B
:104290000ED12B7000231F481A4619460068FEF7FE
:1042A000E7FA3220FEF740FFB1E701333370C9E788
:1042B0002B78012BF5D10024DFF8349037F8241047
:1042C00059F824000022FDF79DF80A4B002233F82C
:1042D0002410094B53F824000134FDF793F8042C03
:1042E000ECD100232B70DCE7755200202C0000205D
:1042F0003C0000200C0000201C0000203453002053
:10430000F6530020845300204C0000206C52002003
:10431000765200203C53002008B50A4B024619682B
:1043200009B9094919606946186802448A4206D9E0
:1043300000F0A4F80C2303604FF0FF3008BD1A60B2
:1043400008BD00BF785200200C540020124B1A68A0
:1043500042F001021A605968104A0A405A601A680D
:1043600022F0847222F480321A601A6822F48022C9
:104370001A605A6822F4FE025A601A6822F0A052AB
:104380001A604FF47F029A600022DA624FF00062F6
:10439000034B9A60704700BF001002400000FFF01E
:1043A00000ED00E070B51B4D1B4C00220421284697
:1043B000FDF728F83220FCF71FF94FF400530722CD
:1043C00016492046FDF708FD3220FCF715F94FF499
:1043D0000053072212492046FDF7FEFC3220FCF76D
:1043E0000BF9104E104B11491A78304600F060F866
:1043F0000F4BC2B2314620461A70FDF771FD3220D4
:10440000FCF7FAF82846BDE8704001220421FCF7C9
:10441000F9BF00BF00140140B45300201758000832
:104420001F580008E4510020C0510020F557000833
:104430007C520020002103E00A4B5B5843500431BA
:1044400009480A4B42189A42F6D3094A02E000236F
:1044500042F8043B074B9A42F9D3FFF777FFFFF787
:10446000C3FA7047F4590008000000202802002019
:10447000280200200C540020FEE70000014B1868C1
:10448000704700BF5800002010B5431E0A449142F7
:1044900000D110BD11F8014B03F8014FF7E70346B7
:1044A0000244934200D1704703F8011BF9E7000072
:1044B0000EB44FF4027100B59CB0ADF814106FF05B
:1044C0000041049107914FF6FF711DAB02900690D9
:1044D000084853F8042BADF81610006802A90193A0
:1044E00000F092F80022029B1A701CB05DF804EBF9
:1044F00003B07047580000200EB44FF4017230B57D
:104500009CB01FAC54F8045BADF8142002900690E8
:10451000FBF78EFE0B4B03900B9300230F9314932A
:104520004FF6FF7307900848ADF816302A46234629
:1045300002A90068019400F0B5F91CB0BDE8304054
:1045400003B070474D450008580000200020704718
:104550002DE9F0478E6882469E420C469146984669
:1045600035D88A8912F4906F31D002232568096901
:104570006F1A656905EB450595FBF3F508F1010335
:104580003B449D4238BF1D46530531D5294600F0B6
:10459000F1FF064650B90C23CAF80030A3894FF04A
:1045A000FF3043F04003A381BDE8F0873A4621691C
:1045B000FFF76AFFA38923F4906343F08003A3818C
:1045C00026613E44266046466561ED1BA560464572
:1045D00028BF464649463246206800F065FFA3687A
:1045E00000209B1BA36023681E442660BDE8F08763
:1045F0002A4601F01DF806460028E1D121695046FF
:1046000000F06CFFC7E700002DE9F04F9DB0039369
:104610008B8980461C060D4616460FD50B696BB973
:10462000402100F0A7FF2860286128B90C23C8F8B2
:1046300000304FF0FF30C4E040236B61002309934A
:1046400020238DF8293030234FF0010B8DF82A30CC
:1046500037463C4614F8013B002B3CD1B7EB060A29
:104660000BD05346324629464046FFF771FF0130D2
:1046700000F0A280099B534409933B78002B00F083
:104680009B8000234FF0FF3204930793059206931B
:104690008DF853301A9305222178504800F0F6FE29
:1046A000671C049BD8B9D90644BF20228DF853203B
:1046B0001A0744BF2B228DF8532022782A2A16D0BD
:1046C00000210A20079A27463B780134303B092B0A
:1046D00050D9C9B111E0252BC0D02746B9E73F4AD0
:1046E0003C46801A0BFA00F018430490D3E7039A73
:1046F000111D12680391002A01DB079204E0524267
:1047000043F00203079204933B782E2B0DD17B7864
:10471000791C2A2B32D1039B02371A1D1B68039286
:10472000002BB8BF4FF0FF3305932D4C032239788F
:10473000204600F0ABFE38B14023001B03FA00F026
:10474000049B0137034304933978062225487E1CD5
:104750008DF8281000F09AFE002835D0224BFBB9C6
:10476000039B073323F0070308330393099B4B4450
:1047700009936DE700FB02320121A4E700230A241C
:10478000184605930F463A780131303A092A03D981
:10479000002BCAD00590C8E704FB00200123F1E7F5
:1047A00003AB00932A46114B04A94046AFF30080A7
:1047B000B0F1FF3F8146D9D1AB895B063FF539AFF8
:1047C00009981DB0BDE8F08F03AB00932A46074B54
:1047D00004A9404600F032FAEAE700BF2A58000870
:1047E0003058000834580008000000005145000807
:1047F00038B54B1C144603D14FF0FF35284638BD61
:104800009389CDB223F020039381536B52688BB10F
:10481000A36B9A4208DA23685A1E226003F8015CEF
:10482000636801336360E9E7214600F0D3FD0028A7
:10483000F1D0E1E72169236851B1994208D213F818
:10484000011C8D4204D1013B013223606260D5E737
:10485000E36304F1440363630323A36323462264F5
:1048600003F8465F23600123DCE710B50C46496B73
:1048700069B104F14403994201D000F02FFE0020F9
:10488000236C6063636013B1E36B236010BD236925
:104890004FF0FF30236000236360A38943F02003BF
:1048A000A38110BD2DE9F04FADF5257D01930023C7
:1048B00006460C4692460A27469347939F4B0DF1B6
:1048C0000C08A2939E4BDFF87C92CDF82081A39335
:1048D0009AF80030002B00F02F8100F0B7FD9AF815
:1048E00000B05844437813F0080343D1BBF1250FBF
:1048F0000AF1010540F09980459343939AF80130FD
:104900002A2B03D110230AF1020543932978AA46E2
:10491000A1F13002092A05F1010541D90322894894
:1049200000F0B4FD38B1A0EB09030120AA4698407D
:10493000439B184343909AF800300AF10105672B16
:104940004AD8652B80F0B780472B2FD8452B80F0B5
:10495000B280002B00F08280252B66D00323449781
:10496000499345E0479901330131479161682360DC
:10497000013961606368002B0BDD00F067FD23687F
:104980001978084441780D07ECD40AF10105AA46CC
:104990009EE7A39B2146304698470028EDD0F4E7D8
:1049A000459B07FB0313303B4593AFE75B2B61D07F
:1049B0000CD8582BD2D1439A42F400724392102261
:1049C00044926F2BB4BF0323042310E0632B5CD00D
:1049D000642BC3D14497F4E7702B42D01DD86E2BC3
:1049E00059D043D8692BB9D1002344930323499369
:1049F0006368002B61DD439B59066FD5499B022BF1
:104A00007CDC01AB224643A9304600F037FA01288E
:104A100000F092800228BAD11DE0752BDAD0782BF5
:104A2000C9D0732B9AD10223E1E76368002B0CDD18
:104A300023681A7893457FD1013362682360479BCE
:104A4000013A013362604793A1E7A39B21463046B8
:104A500098470028ECD04698002863D14FF0FF30EB
:104A600066E0439A42F020024392A4E7082344936D
:104A70000423BCE72946404600F05AFB439B054609
:104A800043F0400343930123B1E7439B43F04003CA
:104A900043930023ABE7439AD0063FF578AF12F07B
:104AA000010F019A479B02F104010191126814BFA2
:104AB000138013606BE7052399E7A39B21463046DB
:104AC0009847002897D0C6E7479A01324792626814
:104AD000013A002A62600ADD0133236000F0B6FC6F
:104AE00023681A78104442781207EDD486E7A39B16
:104AF0002146304698470028F0D0ACE7042B06DC6E
:104B000001AB224643A9304600F01CFA7FE70E4B6A
:104B1000002B3FF43CAF01AB224643A93046AFF334
:104B2000008074E7A38913F0400F18BF4FF0FF30E7
:104B30000DF5257DBDE8F08F4698F9E7F1470008AF
:104B40006B48000830580008000000002DE9F047CD
:104B500091461F468A680B6906469342B8BF1346C2
:104B6000C9F8003091F843200C46DDF8208012B1DE
:104B70000133C9F800302368990642BFD9F80030E4
:104B80000233C9F80030256815F0060507D104F195
:104B9000190AE368D9F800209B1A9D422ADB94F891
:104BA00043302268003318BF012392062FD404F14A
:104BB000430239463046C047013022D02368E568B9
:104BC00003F00603042B18BF0025D9F800204FF08E
:104BD000000908BFAD1AA368226908BF25EAE57578
:104BE0009342C4BF9B1AED181A344D451BD10020C7
:104BF000BDE8F0870123524639463046C0470130B0
:104C000003D14FF0FF30BDE8F0870135C1E7302018
:104C1000E11881F843005A1C94F8451022440233ED
:104C200082F84310C3E70123224639463046C04785
:104C30000130E6D009F10109D7E700002DE9F04382
:104C400017460A7E85B06E2A984606460C460C9B8F
:104C500001F1430E00F0BC801AD8632A2ED00AD886
:104C6000002A00F0C880582A00F08A8004F142052A
:104C700084F842202AE0642A01D0692AF6D121680A
:104C80001A6811F0800F23D0111D1960136827E0F6
:104C9000732A00F0B48008D86F2A2AD0702AE5D190
:104CA0000A6842F020020A6003E0752A21D0782ABF
:104CB000DCD178226F4984F8452064E01A6801F15C
:104CC0004205111D1960136884F842300123A3E0E6
:104CD00011F0400F02F104011960D7D0B2F9003091
:104CE000002B03DA2D225B4284F8432062490A221A
:104CF00017E02068196810F0800F03D0081D1860B5
:104D00000B6806E010F0400F01F104001860F7D0C6
:104D10000B886F2A14BF0A2208225749002084F802
:104D200043006568002DA560C0F29C80206820F0DB
:104D300004002060002B3FD1002D40F09580754687
:104D4000082A0BD12368DA0708D5236962689A42DA
:104D5000DEBF302305F8013C05F1FF35AEEB05035E
:104D60002361CDF800803B4603AA21463046FFF779
:104D7000EDFE013055D14FF0FF3005B0BDE8F083B6
:104D800081F845203C492268186812F0800F00F134
:104D900004051D6001D0036802E05506FBD50388B9
:104DA000D00744BF42F0200222601BB9226822F0E3
:104DB000200222601022B1E77546B3FBF2F002FB3D
:104DC0001033CB5C05F8013D03460028F5D1B7E769
:104DD00008681A6810F0800F496904D0101D186027
:104DE0001368196007E010F0400F02F1040018602A
:104DF0001368F6D01980002375462361B1E71A685D
:104E0000111D1960156800216268284600F03EFBFC
:104E100008B1401B606063682361002384F843305D
:104E20009FE723692A4639463046C0470130A2D061
:104E300023689B0707D5002504F11909E368039A45
:104E40009B1A9D4205DBE068039B9842B8BF184659
:104E500093E701234A4639463046C04701308AD09D
:104E60000135EBE7002BA7D10B7804F1420584F85C
:104E7000423065E74C5800083B5800082DE9F041E6
:104E800015468A6880460C4632B98A69002A0CBFEA
:104E900001224FF0FF328A6000262268D1065FBFF0
:104EA0001A68111D19601768A369DBB1012B07D1BE
:104EB0002B6862691B78D35CA3B9002E31D106E060
:104EC000022B07D0002E2CD1A369012B29D1012060
:104ED000BDE8F08100F0BAFA2B681B7818444378DB
:104EE0001B07EFD423680136DA065EBF2B681B78F8
:104EF0003B702A686B6802F101022A60A26803F124
:104F0000FF3302F1FF326B6058BF0137A26042B13C
:104F1000002BC9DCD4F88031294640469847002848
:104F2000C2D0236813F0100305D1E2680132E260B9
:104F3000A26902B13B70236900201E442661BDE8CE
:104F4000F08100002DE9F04F0C469A46744B87B073
:104F50008346164693E8070003ABA76883E807007B
:104F6000704BA169704A04F11C09032918BF1A4645
:104F70007B1EB3F5AE7F84BF40F25D13A360236850
:104F800088BF6FF4AE7543F45063236098BF002769
:104F90004B464FF00008009288BF7F19316801939B
:104FA00003AB53F828000222097800F06FFA019B46
:104FB00028B3B8F1010F56D162682AB9082262609D
:104FC000226842F400722260226822F4A062226009
:104FD000A268511EA16092B132685D1C511C316003
:104FE00012781A707368013B002B736006DCD4F8EA
:104FF0008031314658469847002877D12B4608F132
:105000000108B8F1030FC9D162680AB90A226260C7
:10501000626846496069891A019300F089F8019B2A
:105020004FF000081D46A368002B39D03168606935
:105030000A78805C002833D0302A226821D11005FC
:105040001FD508F1010817B10133013FA360736850
:10505000013B002B73601CDD336801333360A368B0
:10506000013BA360DFE7B8F1020FB1D1226802F47F
:10507000C061B1F5007FC2D1102142F4807261603D
:10508000A5E722F4106222600B78013505F8013C97
:10509000DDE7D4F880313146584698470028DED005
:1050A0002368D9050CD54D4508D915F8011C6F1E8C
:1050B000D4F87C313246584698473D464D452CD071
:1050C000226812F010021ED12A70636849465846C1
:1050D000009EB0472268DAF8003012F0200F08D0A6
:1050E0001A1DCAF800201B68186009E04FF000087C
:1050F000D6E7D207F4D51A1DCAF800201B6818801D
:10510000E3680133E3600020A5EB0905A8442569A5
:105110004544256107B0BDE8F08F0120FAE700BFE4
:105120002C570008B1530008915200086D58000830
:1051300070B50B78441E5E2B13BF4A1C8A1C4B783B
:10514000002108BF012100F1FF0504F8011FA5425D
:10515000FBD113B9013A104670BD81F0010411462C
:10516000C4540D784A1C2D2D06D05D2DF3D00DB9F9
:105170000A46F0E72B46F2E74E785D2EFAD0B342AE
:10518000F8DC023101339E42C454FBDCE9E72DE92F
:10519000F84F8046894692461F468B465D460A98E0
:1051A00015F8014B00F04FF92044467816F0080638
:1051B0000BD12D2C0BD101262C780BF1020567B1F8
:1051C000102F14D1302C0AD011E0AB46E6E72B2C7F
:1051D00004BF2C780BF10205F1E7302C27D12B7896
:1051E00003F0DF03582B4BD110276C780235002ECB
:1051F0000CBF6FF000414FF000410022B1FBF7FE01
:10520000104607FB1E1CA4F13003092B11D81C46C5
:10521000A7421DDD531C07D0864516D301D1A445F6
:1052200013DB012200FB074015F8014BEBE70A27CF
:10523000DDE7A4F14103192B01D8373CE8E7A4F1DD
:105240006103192B04D8573CE2E74FF0FF32EBE73C
:10525000531C08D122230846C8F80030BAF1000FC9
:1052600007D1BDE8F88F06B14042BAF1000F0CD06B
:1052700022B1013DCAF80050BDE8F88F4D46F9E76C
:105280003024002FB3D10827B1E7BDE8F88F000024
:1052900037B5064C064D2468246A002C08BF2C46FE
:1052A0000094FFF774FF03B030BD00BF580000202A
:1052B000BC0000202DE9F0478046894692461E46F4
:1052C0000F463D46089815F8014B00F0BCF8204405
:1052D000437813F008030AD12D2C0AD101232C782E
:1052E000BD1C5EB1102E13D1302C09D010E02F461A
:1052F000E7E72B2C04BF2C78BD1CF2E7302C25D11E
:105300002A7802F0DF02582A4AD110266C7802353A
:105310004FF0FF31B1FBF6F1002706FB01FE3846E6
:105320006FEA0E0EA4F13002092A11D81446A642E3
:105330001DDD002F18DB814216D301D1A64513DBFA
:10534000012700FB064015F8014BEBE70A26DFE7D3
:10535000A4F14102192A01D8373CE8E7A4F161021F
:10536000192A04D8573CE2E74FF0FF37EBE7002F4C
:1053700009DA22234FF0FF30C8F80030BAF1000FED
:1053800007D1BDE8F08703B14042BAF1000F0CD05D
:1053900027B1013DCAF80050BDE8F0874D46F9E756
:1053A0003024002EB4D10826B2E7BDE8F087000013
:1053B00037B5064C064D2468246A002C08BF2C46DD
:1053C0000094FFF777FF03B030BD00BF5800002006
:1053D000BC0000202DE9F0410C46496B04F1440368
:1053E00099421CD14FF4806100F0C4F818B94FF015
:1053F000FF30BDE8F0814FF48063A36394F846303A
:10540000606380F8FF3394F8453000F2FD3043705C
:1054100094F84430037020600020BDE8F081A66B52
:1054200077003A4600F004F905460028DFD000EB8B
:105430000608014632464046FFF726F8C4F80080C9
:105440006563A763E8E7D0F8EC007047044B054AB2
:105450001B681B6A002B08BF1346D3F8EC0070478B
:1054600058000020BC00002082B001B901A942B15F
:105470004BB113780B601278101C18BF012002B0DA
:1054800070471046FBE76FF00100F8E710B5C9B2AE
:1054900002449042034601D1002010BD1C78013027
:1054A0008C42F6D1184610BD884210B501EB0203BC
:1054B00003D8421E99420CD110BD9842F9D28118EE
:1054C000D21AD34200D110BD13F8014D01F8014D9D
:1054D000F7E711F8014B02F8014FEBE738B5054645
:1054E000002943D051F8043C0C1F002BB8BFE4182E
:1054F00000F0E1F81E4A1368104633B96360146087
:105500002846BDE8384000F0D7B8A3420BD921683F
:105510006218934201BF1A685B6852182260636088
:105520000460EDE713465A680AB1A242FAD9196835
:105530005818A0420BD120680144581882421960C3
:10554000DED110685268014419605A60D8E702D968
:105550000C232B60D4E7206821188A4201BF116810
:1055600052680918216062605C60C9E738BD00BFFD
:105570008052002070B5CD1C25F0030508350C2D98
:1055800038BF0C25002D064601DBA94203D90C23A8
:105590003360002070BD00F08EF8234A1468214665
:1055A00091B9224C23681BB9304600F067F820609F
:1055B0002946304600F062F8431C26D10C233046C1
:1055C000336000F079F8E4E70B685B1B1AD40B2B0F
:1055D0000FD90B60CC18CD50304600F06DF804F1B7
:1055E0000B00231D20F00700C31A1BD05A42E250C3
:1055F00070BD8C420BBF63684B681360636018BF5B
:105600000C46E9E70C464968CAE7C41C24F00304C9
:10561000A04205D0211A304600F030F80130CDD03C
:105620002560D9E770BD00BF805200208452002061
:10563000F8B5074614460E4621B91146BDE8F840B4
:10564000FFF798BF22B9FFF749FF25462846F8BD66
:1056500000F033F884420FD921463846FFF78AFF1D
:1056600005460028F2D031462246FEF70DFF3146AE
:105670003846FFF733FFE9E73546E7E738B500235B
:10568000054C054608462360FEF746FE431C02D142
:10569000236803B12B6038BD0854002049B1FF2AAC
:1056A0008BBF8A230A700360012088BF4FF0FF3050
:1056B0007047084670477047704751F8040C00283F
:1056C000A0F10400BCBF0B58C0187047F8B500BF6C
:1056D000F8BC08BC9E467047F8B500BFF8BC08BCD3
:0456E0009E4670472B
:1056E400000004050607080900000000000D01027F
:1056F400030405060708090A0B0C0D0E0F10000021
:10570400A9FFFFFFDBF7FFFF36090000EE460000AC
:10571400F66E0000EE46000036090000DBF7FFFFDE
:10572400A9FFFFFFBC0100006F5800087258000871
:105734007558000849444C450041542B43303031DE
:105744000D00426C796E6B005363616E00534144EB
:1057540043446174610050726F63436D6400416E31
:1057640054736B006D2C2568752C25632C25632CD4
:105774000A006D2C2568752C2568752C2568752CF8
:105784002568752C2568752C0A0073782C25687596
:105794002C0A00732C2568752C2568752C256875D2
:1057A4002C2568752C2568752C25632C0A00783FF8
:1057B4002568752C0A00782C253035642C25303565
:1057C400642C0A0078632C2568752C2568752C0ACE
:1057D4000069642C253035642C253035642C253043
:1057E40033640A0078632C253035642C6F6B2C0AE3
:1057F4000041542B43253033640D000000000000A9
:10580400000000010203040607080900000000016B
:1058140002030441542B4655310D0041542B4231AF
:10582400393230300D00232D302B2000686C4C00B1
:10583400656667454647003031323334353637388C
:1058440039414243444546003031323334353637EA
:10585400383961626364656600412D46612D66389E
:105864003930313233343536375D002B2D0030304A
:105874000078580000000000000000000000000054
:105884000000000000000000000000000000000014
:105894000000000000000000000000000000000004
:1058A40000000000000000000000000000000000F4
:1058B40000000000000000000000000000000000E4
:1058C40000000000000000000000000000000000D4
:1058D400000000004300504F534958002E000020A0
:1058E400202020202020202028282828282020208C
:1058F400202020202020202020202020202020883C
:10590400101010101010101010101010101010049F
:1059140004040404040404040410101010101010EF
:1059240041414141414101010101010101010101E3
:1059340001010101010101010101101010101010F9
:1059440042424242424202020202020202020202B3
:1059540002020202020202020202101010102000CF
:105964000000000000000000000000000000000033
:105974000000000000000000000000000000000023
:105984000000000000000000000000000000000013
:105994000000000000000000000000000000000003
:1059A40000000000000000000000000000000000F3
:1059B40000000000000000000000000000000000E3
:1059C40000000000000000000000000000000000D3
:1059D40000000000000000000000000000000000C3
:0859E400A4A8FF7F01000000F0
:0459EC001502000898
:0459F000F1010008B9
:1059F4000100000010000000AAAAAAAA04000000E6
:105A040001000000000800000080000000100140B8
:105A1400001001400010014000080140080000008F
:105A2400020000000010000000040000001001400B
:105A3400001001400010014000100140010002006C
:105A44000300040000A24A045C00002000000000DF
:105A540098580008B858000878580008000000005A
:105A64000000000000000000000000000000000032
:105A74000000000000000000000000000000000022
:105A84000000000000000000000000000000000012
:105A94000000000000000000000000000000000002
:105AA40000000000000000000000000043000000AF
:105AB40000000000000000000000000000000000E2
:105AC400000000000000000000000000430000008F
